:100000000C94D3000C94FB000C94FB000C94FB00AC
:100010000C94FB000C94FB000C94FB000C94FB0074
:100020000C94FB000C94FB000C9484070C94F307D5
:100030000C94FB000C94FB000C94FB000C94FB0054
:100040000C94FB000C94FB000C94FB000C94FB0044
:100050000C94FB000C94FB000C94FB000C94250A00
:100060000C94FB000C94FB000C94FB000C94FB0024
:100070000C94FB000C94FB000C94FB000C94FB0014
:100080000C94FB000C94FB000C94FB000C94FB0004
:100090000C94FB000C94FB000C94FB000C94FB00F4
:1000A0000C94FB000C94FB000C94FB00000000027D
:1000B00000090F0000030401000C00000000000014
:1000C0000000000000000000000000080B00020219
:1000D00002000009040000010202000005240010D3
:1000E000010524010101042402060524060001077C
:1000F00005810310004009040100020A0000000706
:1001000005020240000007058302400000040309C5
:100110000412010002EF0201404123378000010177
:1001200002030141726475696E6F204C4C430041BB
:10013000726475696E6F204D6963726F0007060502
:10014000040100080A0B0C0D09000000002500281E
:10015000002B002E00310000000000240027002AA0
:10016000002D00300004040404040304050202020C
:100170000204030202020206060606060604040240
:100180000202040404080201104080401020408054
:1001900040800802040180402010020110801020DD
:1001A00040402000880A11241FBECFEFDAE0DEBFF6
:1001B000CDBF11E0A0E0B1E0EEEAF8E102C00590A9
:1001C0000D92A234B107D9F721E0A2E4B1E001C059
:1001D0001D92A13FB207E1F710E0C3EDD0E004C0EB
:1001E0002197FE010E944F0CC23DD107C9F70E9422
:1001F000BA0A0C94550C0C94000090E0FC01EC57EA
:10020000FE4F24918B599E4FFC018491882399F0D5
:1002100090E0880F991FFC01E95AFE4FA591B49117
:10022000FC01E75BFE4F859194918FB7F894EC91B8
:10023000E22BEC938FBF0895E4E4F1E0E491909118
:100240007B008E2F880F880F80729F7D892B809373
:100250007B00E770E064E0937C0080917A0080642A
:1002600080937A0080917A0086FDFCCF809178009F
:10027000909179000895FC0180916101882311F12A
:100280003FB7F89482E08093E9002091F200822F3A
:1002900090E01816190614F481E090E0882339F0F4
:1002A000289A44E6409360014091F1004083222364
:1002B00039F02091F200211103C02BE62093E800D1
:1002C0003FBF08958FEF9FEF08952FB7F89483E015
:1002D0008093E9009091E800892F807295FF04C017
:1002E0009091F20080E4891B2FBF089580915801FE
:1002F00081110DC082E08093540184E08093550108
:10030000109257011092560181E08093580184E5C4
:1003100091E00895CF93DF931F92CDB7DEB7698345
:10032000DC01ED91FC910280F381E02D41E050E091
:10033000BE016F5F7F4F09950F90DF91CF910895B8
:1003400083E08093E9008091F200882319F08AE32A
:100350008093E80008950E94650190E00895CF938E
:10036000DF931F92CDB7DEB7FC018485958597FD9D
:1003700008C02FEF3FEF358724870F90DF91CF9193
:100380000895CE0101960E943B01019719F48981DD
:1003900090E0F3CF8FEF9FEFF0CF0F931F93CF93AA
:1003A000DF931F92CDB7DEB78C01FC018485958564
:1003B00097FF0BC0CE0101960E943B01019771F49B
:1003C000898190E0F80195878487F8018485958577
:1003D0000F90DF91CF911F910F9108958FEF9FEFB5
:1003E000F1CFFC018485958597FD0BC09FB7F894EC
:1003F00082E08093E9008091F2009FBF90E0019637
:1004000008959FB7F89482E08093E9008091F2000C
:100410009FBF90E0089540914E0150914F0120916F
:100420004C0130914D0142175307B4F49091E8000C
:100430009570E1F39091E80092FD19C08093F1006E
:1004400080914E0190914F0101968F739927892BCE
:1004500019F48EEF8093E80080914E0190914F0146
:10046000019690934F0180934E0181E0089580E0C2
:100470000895EF92FF920F931F93CF93DF93F82E7F
:10048000192FE62E042F81E0860F880F0E940B02A1
:1004900083E00E940B02CF2DD12FEC0EFD2EF11C1C
:1004A000CE15DF05B9F007FF13C0FE0184910E944D
:1004B0000B02182F80E00E940B02812321968111EC
:1004C000EFCFDF91CF911F910F91FF90EF900895A3
:1004D0008881EDCF81E0F5CFDF92EF92FF920F930D
:1004E0001F93CF93DF93D82E8A01EB017B01E40E9B
:1004F000F51ECE15DF0559F0D7FE12C0FE0184911E
:100500000E940B0221968111F4CF0FEF1FEFC8015B
:10051000DF91CF911F910F91FF90EF90DF900895A1
:100520008881EECF0F931F93CF93DF931F92CDB7A8
:10053000DEB782E0898342E450E06BEC70E080E853
:100540000E946C020E947601DC0112960D911C91B2
:100550000115110589F0D801ED91FC910280F3811C
:10056000E02DBE016F5F7F4FC801099597FD04C064
:10057000F80100851185ECCF89810F90DF91CF9133
:100580001F910F910895615030F02091F100FC010E
:1005900020830196F8CF289A84E68093600108951D
:1005A000282F30E0F901E455FF4F9491F901EC5701
:1005B000FE4F84912B593E4FF9012491222309F4D7
:1005C00030C09923E9F091509F30D0F4E92FF0E04A
:1005D000E451FD4F0C944F0C1A031E03FB0212034F
:1005E0001603000300030003210327032B032F033B
:1005F000350300033903909180009F77909380002A
:10060000E22FF0E0EE0FFF1FE75BFE4FA591B491E4
:100610009FB7F894EC91611132C080958E238C9332
:100620009FBF0895909180009F7DE8CF90918000BA
:10063000977FE4CF94B59F7794BDE2CF94B59F7D2B
:10064000FBCF909190009F7790939000D9CF90919D
:1006500090009F7DF9CF90919000977FF5CF90917A
:10066000C0009F779093C000CBCF9091C0009F7D3A
:10067000F9CF9091C200977F9093C200C1CF8E2B8B
:10068000CECF3FB7F8948091480190914901A09155
:100690004A01B0914B0126B5A89B05C02F3F19F028
:1006A0000196A11DB11D3FBFBA2FA92F982F8827F2
:1006B000BC01CD01620F711D811D911D42E0660FCD
:1006C000771F881F991F4A95D1F708958F929F929F
:1006D000AF92BF92CF92DF92EF92FF924B015C01FB
:1006E0000E9441036B017C010E9441036C197D094A
:1006F0008E099F09683E734081059105A8F321E0AA
:10070000821A9108A108B10888EEC80E83E0D81EAD
:10071000E11CF11C81149104A104B10429F7FF909C
:10072000EF90DF90CF90BF90AF909F908F90089503
:100730008F929F92AF92BF92CF92DF92EF92FF92F1
:100740000F931F93CF93DF936C017B018A018091FC
:100750000B01882309F45CC080916101882309F4AE
:1007600057C08091530180FF05C08091E0008260F6
:100770008093E000E801B12C8AEFA82E93E0892E47
:100780002AE3922E209711F4BB20D9F10E94650133
:1007900081110AC0AA94AA20D9F161E070E080E03A
:1007A00090E00E946603EECF8C171D0611F00CF04E
:1007B0008C2F9FB7F8948092E9002091E80025FDE6
:1007C00002C09FBFDFCF282F30E0C21BD30BF70141
:1007D000815020F041914093F100FACFE20EF31ED8
:1007E000BB2021F09092E800B12CEBCF8091E80083
:1007F00085FDE7CF9092E800BB24B394209709F3DE
:10080000F3CF5D9A84E680935201101611063CF0F6
:1008100081E090E0F6019383828310E000E0C8015C
:10082000DF91CF911F910F91FF90EF90DF90CF90CC
:10083000BF90AF909F908F900895CF93CFB7F894CB
:1008400080914201811124C0E6E7F1E08491E5E95D
:10085000F1E09491E82FF0E0EE0FFF1FE95AFE4F10
:10086000A591B491EC91E92321F461E081E10E942A
:10087000D00281E10E94FD008CB580618CBD8CB5F9
:1008800080648CBD8FE00E94FD0080E10E94FD002D
:10089000809142018F5F80934201CFBFCF91089535
:1008A0009FB7F89480914201882319F0815080937A
:1008B000420180914201811103C08CB58F7B8CBDB8
:1008C0009FBF08958EBD00000DB407FEFDCF8EB50D
:1008D00008951F93CF93DF93EC0160E08A810E941B
:1008E000D00282E00E94620481E30E9462041DE063
:1008F00080E00E9462041150D9F761E08A810E9471
:10090000D00260E08A810E94D00282E00E946204EC
:1009100081E40E9462041DE080E00E9462041150A4
:10092000D9F761E08A810E94D00260E08A810E944A
:10093000D00282E00E94620481E50E9462041DE010
:1009400080E00E9462041150D9F761E08A81DF9152
:10095000CF911F910C94D0021F93CF93DF93EC01A2
:1009600060E08A810E94D00282E00E94620481E6F7
:100970000E9462041DE080E00E9462041150D9F7D9
:1009800061E08A810E94D00260E08A810E94D002E8
:1009900082E00E94620481E70E9462041DE080E020
:1009A0000E9462041150D9F761E08A81DF91CF91F2
:1009B0001F910C94D002CF93DF93EC010E94AC0402
:1009C000CE01DF91CF910C9469041F93CF93DF93F5
:1009D000EC0160E08A810E94D00280EA0E946204F9
:1009E0008FEF0E946204182F61E08A810E94D0027A
:1009F000812FDF91CF911F9108950E94E5048370AC
:100A00000895FF920F931F93CF93DF93EC01F62E7F
:100A1000042F122F60E08A810E94D00285E00E949C
:100A200062048F2D0E946204802F0E946204812F35
:100A30000E94620461E08A81DF91CF911F910F9142
:100A4000FF900C94D0020F931F93CF93DF93EC0190
:100A5000062F142F60E08A810E94D00282E00E945B
:100A60006204802F0E946204812F0E94620461E070
:100A70008A81DF91CF911F910F910C94D0029F92A8
:100A8000AF92BF92CF92DF92EF92FF920F931F939C
:100A9000CF93DF938C01EB010E94E50482FF0AC033
:100AA00084FF6EC0A4E8CA2EB4E4BB2E86FF06C045
:100AB00080E099C0E1E8CE2EF0E4BF2EE8848E2DD0
:100AC00082958F70E984E29450EFE522E82A8B81C9
:100AD000D8804D2D59816A81782F7F71282F2074FD
:100AE00087FF53C0DB01CA0135E1B695A7959795FD
:100AF00087953A95D1F7A82EDB01CA014DE0B6954E
:100B0000A795979587954A95D1F7807E962F9370F4
:100B1000F92EF82A6894F3F8952E222311F06894A0
:100B2000E6F860E0F80182810E94D0028B2D0E94DD
:100B300062048A2D0E9462048F2D0E946204892D16
:100B40000E9462048D2D0E9462048E2D0E94620418
:100B50007E0197012C1B3D0BFFEFEF1AFF0A8885E2
:100B6000982F92959F7089858295807F892B821717
:100B70001306F9F0F4F0F70183850E946204E9CFCF
:100B800062E8C62E72E4B72E99CF83E0769567951A
:100B9000579547958A95D1F7A42EFD2CF294FF0C1A
:100BA00090EEF922222311F06894F4F8D12C912CC4
:100BB000B8CF61E0F80182810E94D00260E0F801C4
:100BC00082810E94D0028C2D0E94620461E0F801B3
:100BD00082810E94D0028885982F92959F70898586
:100BE0008295807F892BDF91CF911F910F91FF908C
:100BF000EF90DF90CF90BF90AF909F9008958F922D
:100C00009F92AF92BF92CF92DF92EF92FF920F939B
:100C10001F93CF93DF93EC015B01FC013C9688E0CE
:100C2000DF011D928A95E9F7CB010E94E50480FD62
:100C300014C014E981FD12C08B818F7D8B83CE019E
:100C4000DF91CF911F910F91FF90EF90DF90CF90A8
:100C5000BF90AF909F908F90089510E960E0F501EC
:100C600082810E94D002812F0E9462048FEF0E9435
:100C70006204082F8FEF0E946204E82E8FEF0E941B
:100C80006204F82E8FEF0E946204182F8FEF0E94EB
:100C90006204282F2295207F98859F70922B988739
:100CA000282F22952F709985907F922B99874E013E
:100CB000C82ED12CC4018C1B9D0B8C159D0554F4A2
:100CC0008FEF0E946204D4011C968C93BFEF8B1AA5
:100CD0009B0AF0CF61E0F50182810E94D0026E2D67
:100CE00070E09B01A3E035952795AA95E1F78B81EC
:100CF00020FB87F98B83282F207E87FF39C04E2D5C
:100D000050E070E060E0802F90E0B0E0A0E035E1DE
:100D1000880F991FAA1FBB1F3A95D1F79F29812BD6
:100D20006A017B01EDE0CC0CDD1CEE1CFF1CEA959A
:100D3000D1F7CC24DD24FCE1EF22FF248C299D296E
:100D4000AE29BF29BA015527442744275527637088
:100D50007727842B952BA62BB72B88839983AA837F
:100D60008B2F8F71282B2F7B2B838B81806266CFFB
:100D700038E0039FC0011124092E000CAA0BBB0B05
:100D80004E2D429546954770842B88839983AA837C
:100D90008B2F8F7194E0759567959A95E1F7282BC5
:100DA00060FB26F9E1CF8F929F92AF92BF92FF92A4
:100DB0000F931F93CF93DF93EC014A015B010E94D5
:100DC0001D0460E08A810E94D00280EC0E946204CF
:100DD00061E08A810E94D002CE010E94AC04CE0163
:100DE0000E94690420E640E660E6CE010E9401050B
:100DF00020E640E660E7CE010E94010580E188160A
:100E000087E29806A104B10409F440C080E2881684
:100E10008EE49806A104B10409F45AC080E588164E
:100E200083EC9806A104B10409F457C080EA88163F
:100E300086E8980681E0A806B10409F453C088E466
:100E4000881688EE980681E0A806B10409F44FC020
:100E500080E9881680ED980683E0A806B10409F4BD
:100E60004BC080E2881681EA980687E0A806B104A4
:100E700009F447C080E4881682E498068FE0A8064B
:100E8000B10441F412E800EDF12C04C015E008EBC8
:100E900041E3F42E4F2D6AE2CE010E942305402F3C
:100EA00069E2CE010E942305412F68E2CE010E9433
:100EB000230520E040EE6FE0CE01DF91CF911F913E
:100EC0000F91FF90BF90AF909F908F900C94010571
:100ED00015E008EB38E1F32EDDCF15E008EB29E053
:100EE000F22ED8CF15E008EB94E0F92ED3CF15E021
:100EF00008EB83E0F82ECECF15E008EBFF24F39447
:100F0000C9CF15E008EBC0CF1F920F920FB60F921A
:100F100011248F939F938091E1009091E100937F42
:100F20009093E10083FF0FC01092E90091E090934D
:100F3000EB001092EC0092E39093ED0010926101AF
:100F400098E09093F00082FF22C093E09093E90034
:100F50009091F200992319F09AE39093E800909110
:100F60005201992341F09091520191509093520176
:100F7000911101C05D9890916001992341F0909189
:100F80006001915090936001911101C0289884FFF5
:100F900018C08091E2008E7E81608093E200809193
:100FA000E1008F7E8093E100809153018E7E80610D
:100FB000809353019F918F910F900FBE0F901F90C0
:100FC000189580FFF7CF8091E2008E7E806180933C
:100FD000E2008091E1008E7E8093E10080915301D8
:100FE0008E7E8160E5CF1F920F920FB60F92112473
:100FF000CF92DF92EF92FF920F931F932F933F9325
:101000004F935F936F937F938F939F93AF93BF9310
:10101000EF93FF93CF93DF93CDB7DEB76C97DEBF2F
:10102000CDBF1092E9008091E80083FF25C068E001
:10103000CE0145960E94C30282EF8093E8008D891D
:1010400087FF39C09091E80090FFFCCF982F9076F1
:1010500009F034C19E894F89588D2F89F88C9111E0
:1010600031C0803861F5809151018093F100109278
:10107000F1008EEF8093E8006C960FB6F894DEBF17
:101080000FBECDBFDF91CF91FF91EF91BF91AF9197
:101090009F918F917F916F915F914F913F912F9190
:1010A0001F910F91FF90EF90DF90CF900F900FBEA8
:1010B0000F901F9018959EEF9093E800C7CF109265
:1010C000F100D5CF913059F48111D3CF4130510582
:1010D00081F6809151018D7F80935101CACF933069
:1010E00049F48111C6CF4130510519F68091510163
:1010F0008260F2CF953041F48091E80080FFFCCF10
:1011000020682093E300B5CF963009F0A9C00B8D7D
:101110001C8D22E01092E90010924F0110924E01B6
:10112000F2122EC010924D0110924C010E949202B8
:101130001F8299E09983FA8291E09E8390EA9887D2
:101140009AEF998720914E0130914F01275F3F4FD1
:101150003C832B838D831092E90010924F011092F3
:101160004E0110934D0100934C0149E050E0BE0147
:101170006F5F7F4F80E00E946C020E94920279CFE5
:1011800010934D0100934C010E947601DC011296F0
:101190000D911C910115110509F451C1D801ED9172
:1011A000FC910480F581E02DBE016B5E7F4FC8018C
:1011B0000995009709F03EC1F80100851185EACF35
:1011C000F3E0FF120EC08F89882309F440C08230FB
:1011D00061F440E86DE08FE291E00E9439028111F4
:1011E00048CF81E28093EB0047CF813029F440E87B
:1011F0006BE083E291E0F1CF833099F70E947601B2
:10120000DC011296ED90FC908E010F5F1F4F68017C
:10121000E114F10479F0D701ED91FC910680F7819A
:10122000E02DB801C7010995080F111DF701E084F1
:10123000F184EECFD8011C92F60101900020E9F76D
:101240003197BF016C197D0940E0C601C6CF6DE042
:1012500071E0FB01449150E080E80E946C0209CFEC
:10126000973009F4BECF983021F481E08093F100EB
:1012700000CF993009F0FDCE837009F0B2CFE9E1DB
:10128000F1E081E031E096E32191222371F0809337
:10129000E9003093EB00DF0111972C912093EC00D3
:1012A0009093ED008F5F873079F78EE78093EA00A7
:1012B0001092EA008F8980936101DBCE8B8D9C8D2B
:1012C0001092E90010924F0110924E0190934D013F
:1012D00080934C01898D811192C08E899D89913AAC
:1012E00049F4813209F07DCF47E050E064E071E0DD
:1012F00080E0B3CF913209F074CF833269F48F89E3
:10130000988DB0E0A0E08093000190930101A0933C
:101310000201B0930301ADCE803269F48091E80000
:1013200082FFFCCF67E084E091E00E94C3028BEF74
:101330008093E8009ECE823209F09BCE8F89809305
:101340000B01EEEFFFE7859194918B3F9C4D51F19E
:10135000E0E0F8E08091040190910501A091060180
:10136000B0910701803B9440A105B105F1F4809153
:101370000B0180FD1AC0EE3F8AE0F80789F587E788
:1013800097E791838083809160008093500188E18A
:101390009BE00FB6F894A895809360000FBE9093E1
:1013A000600067CEEEEFFAE0D5CF8081918187377C
:1013B000974709F05ECEA895809160008861809380
:1013C00060008091500180936000EE3F2AE0F207B8
:1013D00089F08091FE0A9091FF0A9183808349CE23
:1013E000808191818737980751F29093FF0A80930B
:1013F000FE0AC5CF1092FF0A1092FE0A3ACE0E9452
:101400007601DC0112960D911C910115110509F46C
:10141000E8CED801ED91FC910190F081E02DBE0164
:101420006B5E7F4FC8010995811123CEF8010085BD
:101430001185EBCF181619060CF41BCED2CEF1E0B5
:10144000FF12BECE61E171E004CF1F920F920FB682
:101450000F9211242F933F938F939F93AF93BF933A
:101460008091440190914501A0914601B0914701BE
:101470003091430123E0230F2D3758F50196A11D2C
:10148000B11D209343018093440190934501A093A3
:101490004601B09347018091480190914901A09184
:1014A0004A01B0914B010196A11DB11D80934801E5
:1014B00090934901A0934A01B0934B01BF91AF9122
:1014C0009F918F913F912F910F900FBE0F901F9082
:1014D000189526E8230F0296A11DB11DD2CFCF93F8
:1014E000DF93FC0188E0DF01C82F1D92CA95E9F760
:1014F00010861186DF011A96ED0119928A95E9F797
:10150000128A138A80B38F7080BBDF91CF910895C8
:10151000CF93DF93E2E6F1E01382128288EE93E04C
:10152000A0E0B0E084839583A683B78383E291E053
:10153000918380838FEF9FEF9587848782EB91E083
:101540000E946F0A86EC91E00E946F0A8AED91E09A
:101550000E946F0ACEEED1E085E391E09983888303
:101560008AE08A830E94FD0061E08A81DF91CF9149
:101570000C94D002CF93DF93CDB7DEB7A8970FB608
:10158000F894DEBF0FBECDBF789484B5826084BD71
:1015900084B5816084BD85B5826085BD85B5816077
:1015A00085BD80916E00816080936E0010928100F5
:1015B00080918100826080938100809181008160B0
:1015C0008093810080918000816080938000809171
:1015D000910082608093910080919100816080935E
:1015E0009100809190008160809390008091C10073
:1015F00084608093C1008091C10082608093C100AB
:101600008091C10081608093C1008091C30081609E
:101610008093C3008091C00082608093C00080915D
:10162000C20081608093C20080917A0084608093C0
:101630007A0080917A00826080937A0080917A00AB
:10164000816080937A0080917A00806880937A002C
:101650001092610110925101109253018091D700B4
:1016600081608093D70080EA8093D80089B580613B
:1016700089BD89B5826089BD09B400FEFDCF61E0F6
:1016800070E080E090E00E9466038091D8008F7C3B
:1016900080618093D8008091E000807F8093E0009B
:1016A0008091E1008E7E8093E1008DE08093E200E6
:1016B000559A209A5D9828980E941D0440E251EAAC
:1016C00067E070E08EEE91E00E94D3065E0121E2B9
:1016D000A20EB11C4E014DE0840E911C9AEB292EF6
:1016E00091E0392E20E0422E20E0522E8CE0682E30
:1016F00081E0782E02EB11E06801F12CE12CD3019E
:101700008D913D01B0E18B9FC001112491B3892BD4
:1017100081BB68E270E080E090E0E6E0EE16F10464
:101720000CF0B6C00E9466030E941C01D6018C9387
:1017300064E170E080E090E00E94660381B38F7006
:1017400081BBFFEFEF1AFF0A2FEFC21AD20A4CE05B
:10175000E416F104A1F69091B2018091BC01E2EB94
:10176000F1E0392F2191231708F4322F51E0E83BA3
:10177000F507C1F76CEB71E0FB01282F419142178F
:1017800008F4242FA2ECB1E0AE17BF07B9F73093ED
:10179000BA012093C40122EB31E0D9014D919D01A2
:1017A000941708F4942FB1E0283B3B07B1F7DB0115
:1017B0002D91BD01821708F4822F6E177F07B9F7AC
:1017C0009093BB018093C50162E370E080E090E0FC
:1017D0000E9466038091BA018093C2019091C50175
:1017E0009093C3018093B8018091BB018093B901AC
:1017F000F50128E011922A95E9F7D401E8E01D925D
:10180000EA95E9F7F0EBFD8B1E8A1F8A988D21EB94
:1018100029831A821B828C81907E9F77988F807E8D
:101820008F778C838D8D8F7080688D8F8E8D807F6C
:101830008E8F89858F70806889878A85807F8A8767
:10184000D5019401F80181918F018D938185F90172
:1018500081939F0120163106A9F7BE016B5E7F4F71
:101860008EEE91E00E943F056AE070E080E090E03B
:101870000E946603BE016F5F7F4F8EEE91E00E9473
:101880003F054114510409F431CF0E9400002ECFCE
:101890000E9466030E941C01F601848349CFEE0F6B
:0E18A000FF1F0590F491E02D0994F894FFCFFE
:1018AE00FFFFFFFF00E10000000000000008040C35
:1018BE00020A060E0109050D00C18081000000001C
:1018CE000000008A019803AB01A001F101AF01CD28
:1018DE000100000000D3065004FD04FF05DB043FA9
:0218EE000500F3
:00000001FF
