:100000000C94D3000C94FB000C94FB000C94FB00AC
:100010000C94FB000C94FB000C94FB000C94FB0074
:100020000C94FB000C94FB000C944C090C94BB0941
:100030000C94FB000C94FB000C94FB000C94FB0054
:100040000C94FB000C94FB000C94FB000C94FB0044
:100050000C94FB000C94FB000C94FB000C94020924
:100060000C94FB000C94FB000C94FB000C94FB0024
:100070000C94FB000C94FB000C94FB000C94FB0014
:100080000C94FB000C94FB000C94FB000C94FB0004
:100090000C94FB000C94FB000C94FB000C94FB00F4
:1000A0000C94FB000C94FB000C94FB00080B00026A
:1000B0000202000009040000010202000005240001
:1000C0001001052401010104240206052406000193
:1000D0000705810310004009040100020A00000026
:1000E00007050202400000070583024000000403E8
:1000F000090412010002EF02014041233780000190
:100100000102030141726475696E6F204C4C43001B
:1001100041726475696E6F204D6963726F000706E6
:1001200005040100080A0B0C0D0900000000240062
:1001300027002A002D0030000000000025002800C4
:100140002B002E0031000404040404030405020201
:100150000202040302020202060606060606040460
:1001600002020204040408020110408040102040F2
:10017000804080080204018040201002011080109D
:10018000204040200000000200090F00000304018D
:10019000000C000000000000000000000000000053
:1001A00000000000ED0B11241FBECFEFDAE0DEBF30
:1001B000CDBF11E0A0E0B1E0E8EAF0E202C00590B6
:1001C0000D92A436B107D9F722E0A4E6B1E001C050
:1001D0001D92AF35B207E1F710E0C3EDD0E004C0E7
:1001E0002197FE010E94C40DC23DD107C9F70E94AC
:1001F000380C0C9452100C940000CF93DF93FC0148
:1002000088E0DF01C82F1D92CA95E9F71086118694
:10021000DF011A96ED0119928A95E9F7128A138A7D
:100220001E9680E1ED0119928A95E9F7158A148AE4
:10023000178A168ADF91CF910895FC01809183017E
:10024000882311F13FB7F89482E08093E900209170
:10025000F200822F90E01816190614F481E090E065
:10026000882339F0289A44E6409382014091F100B6
:100270004083222339F02091F200211103C02BE6A4
:100280002093E8003FBF08958FEF9FEF08952FB7A9
:10029000F89483E08093E9009091E800892F8072C0
:1002A00095FF04C09091F20080E4891B2FBF089550
:1002B00080917A0181110DC082E08093760184E003
:1002C00080937701109279011092780181E08093F8
:1002D0007A0186E791E00895282F30E0F901EC5784
:1002E000FE4F9491F901EB59FE4F84912A5B3E4FEA
:1002F000F9012491222309F430C09923E9F09150A7
:100300009F30D0F4E92FF0E0E857FE4F0C94C40D75
:10031000B601BA019701AE01B2019C019C019C019A
:10032000BD01C301C701CB01D1019C01D501909151
:1003300080009F7790938000E22FF0E0EE0FFF1F88
:10034000E85CFE4FA591B4919FB7F894EC916111D0
:1003500032C080958E238C939FBF0895909180002A
:100360009F7DE8CF90918000977FE4CF94B59F77F1
:1003700094BDE2CF94B59F7DFBCF909190009F7785
:1003800090939000D9CF909190009F7DF9CF90915C
:100390009000977FF5CF9091C0009F779093C00019
:1003A000CBCF9091C0009F7DF9CF9091C200977FF5
:1003B0009093C200C1CF8E2BCECFCF93DF9390E02E
:1003C000FC01EB59FE4F24918A5B9E4FFC01849106
:1003D0008823D1F090E0880F991FFC01E65DFE4F65
:1003E000A591B491FC01E85CFE4FC591D4916111D7
:1003F0000EC09FB7F8948C91E22FE0958E238C93DA
:100400002881E223E8839FBFDF91CF9108958FB7C2
:10041000F894EC91E22BEC938FBFF6CF8251E82F4A
:10042000F0E0E25EFE4FE49190917B008E2F880F0A
:10043000880F80729F7D892B80937B00E770E0643A
:10044000E0937C0080917A00806480937A008091B0
:100450007A0086FDFCCF8091780090917900089514
:100460003FB7F8948091720190917301A09174014B
:10047000B091750126B5A89B05C02F3F19F00196D4
:10048000A11DB11D3FBFBA2FA92F982F8827BC01EE
:10049000CD01620F711D811D911D42E0660F771F16
:1004A000881F991F4A95D1F70895CF92DF92EF9256
:1004B000FF920E9430026B017C010E9430026C1995
:1004C0007D098E099F09683E734081059105A8F357
:1004D000FF90EF90DF90CF90089540916701509189
:1004E0006801209165013091660142175307B4F409
:1004F0009091E8009570E1F39091E80092FD19C0A9
:100500008093F100809167019091680101968F734B
:100510009927892B19F48EEF8093E8008091670169
:10052000909168010196909368018093670181E042
:10053000089580E00895EF92FF920F931F93CF9359
:10054000DF93F82E192FE62E042F81E0860F880FF7
:100550000E946D0283E00E946D02CF2DD12FEC0E20
:10056000FD2EF11CCE15DF05B9F007FF13C0FE010B
:1005700084910E946D02182F80E00E946D028123F9
:1005800021968111EFCFDF91CF911F910F91FF90B5
:10059000EF9008958881EDCF81E0F5CFDF92EF9263
:1005A000FF920F931F93CF93DF93D82E8A01EB0115
:1005B0007B01E40EF51ECE15DF0559F0D7FE12C003
:1005C000FE0184910E946D0221968111F4CF0FEFFC
:1005D0001FEFC801DF91CF911F910F91FF90EF9016
:1005E000DF9008958881EECF0F931F93CF93DF9311
:1005F0001F92CDB7DEB782E0898342E450E06CEA17
:1006000070E080E80E94CE020E945801DC01129640
:100610000D911C910115110589F0D801ED91FC9106
:100620000280F381E02DBE016F5F7F4FC801099505
:1006300097FD04C0F80100851185ECCF89810F90EA
:10064000DF91CF911F910F910895615030F020916B
:10065000F100FC0120830196F8CF289A84E680936C
:10066000820108958F929F92AF92BF92CF92DF92B4
:10067000EF92FF920F931F93CF93DF936C017B0157
:100680008A0180910B01882309F458C0809183016D
:10069000882309F453C080916B0180FF05C08091CD
:1006A000E00082608093E000E801B12C8AEFA82E80
:1006B00093E0892E2AE3922E209711F4BB20B9F102
:1006C0000E944701811106C0AA94AA20B9F10E9494
:1006D0005502F2CF8C171D0611F00CF08C2F9FB72E
:1006E000F8948092E9002091E80025FD02C09FBFA8
:1006F000E3CF282F30E0C21BD30BF701815020F04D
:1007000041914093F100FACFE20EF31EBB2021F09D
:100710009092E800B12CEBCF8091E80085FDE7CF07
:100720009092E800BB24B394209709F3F3CF5D9A2D
:1007300084E680936A01101611063CF081E090E097
:10074000F6019383828310E000E0C801DF91CF912E
:100750001F910F91FF90EF90DF90CF90BF90AF90DF
:100760009F908F900895CF93DF931F92CDB7DEB700
:100770006983DC01ED91FC910280F381E02D41E081
:1007800050E0BE016F5F7F4F09950F90DF91CF91D1
:10079000089583E08093E9008091F200882319F0A6
:1007A0008AE38093E80008950E94470190E008954D
:1007B000CF93DF931F92CDB7DEB7FC01848595857B
:1007C00097FD08C02FEF3FEF358724870F90DF910B
:1007D000CF910895CE0101960E941D01019719F451
:1007E000898190E0F3CF8FEF9FEFF0CF0F931F93AE
:1007F000CF93DF931F92CDB7DEB78C01FC018485C8
:10080000958597FF0BC0CE0101960E941D010197AF
:1008100071F4898190E0F80195878487F8018485D7
:1008200095850F90DF91CF911F910F9108958FEFD4
:100830009FEFF1CFFC018485958597FD0BC09FB795
:10084000F89482E08093E9008091F2009FBF90E0ED
:10085000019608959FB7F89482E08093E900809113
:10086000F2009FBF90E00895CF93CFB7F8948091A6
:100870006401811127C0E7E5F1E08491E6E7F1E04A
:100880009491E82FF0E0EE0FFF1FE65DFE4FA5917B
:10089000B491EC91E92321F461E081E10E946C01C3
:1008A00061E081E10E94DD018CB580618CBD8CB579
:1008B00080648CBD61E08FE00E94DD0161E080E139
:1008C0000E94DD01809164018F5F80936401CFBF3E
:1008D000CF9108950F931F93FC012FB7F894809147
:1008E0006E0190916F01A0917001B09171012FBFC5
:1008F00044815581668177814115510561057105F6
:1009000041F480839183A283B38381E01F910F918F
:1009100008950081118122813381801B910BA20BEC
:10092000B30B84179507A607B70748F0400F511F70
:10093000621F731F4083518362837383E6CF80E01D
:10094000E5CF9FB7F89480916401882319F0815016
:100950008093640180916401811103C08CB58F7B09
:100960008CBD9FBF08958EBD00000DB407FEFDCF66
:100970008EB508951F93CF93DF93EC0160E08A81D9
:100980000E946C0182E00E94B30481E30E94B304E0
:100990001DE080E00E94B3041150D9F761E08A8124
:1009A0000E946C0160E08A810E946C0182E00E94DA
:1009B000B30481E40E94B3041DE080E00E94B3040C
:1009C0001150D9F761E08A810E946C0160E08A8150
:1009D0000E946C0182E00E94B30481E50E94B3048E
:1009E0001DE080E00E94B3041150D9F761E08A81D4
:1009F000DF91CF911F910C946C011F93CF93DF93E4
:100A0000EC0160E08A810E946C0182E00E94B304E4
:100A100081E60E94B3041DE080E00E94B3041150FF
:100A2000D9F761E08A810E946C0160E08A810E94AE
:100A30006C0182E00E94B30481E70E94B3041DE0D0
:100A400080E00E94B3041150D9F761E08A81DF9100
:100A5000CF911F910C946C01CF93DF93EC010E9416
:100A6000FD04CE01DF91CF910C94BA041F93CF9374
:100A7000DF93EC0160E08A810E946C0180EA0E94B1
:100A8000B3048FEF0E94B304182F61E08A810E94A3
:100A90006C01812FDF91CF911F9108950E9436053F
:100AA00083700895FF920F931F93CF93DF93EC0110
:100AB000F62E042F122F60E08A810E946C0185E0DF
:100AC0000E94B3048F2D0E94B304802F0E94B304B0
:100AD000812F0E94B30461E08A81DF91CF911F9141
:100AE0000F91FF900C946C010F931F93CF93DF93A2
:100AF000EC01062F142F60E08A810E946C0182E0D5
:100B00000E94B304802F0E94B304812F0E94B3047B
:100B100061E08A81DF91CF911F910F910C946C015C
:100B20009F92AF92BF92CF92DF92EF92FF920F937C
:100B30001F93CF93DF938C01EB010E94360582FF58
:100B40000AC084FF6EC0A4E8CA2EB4E4BB2E86FFA0
:100B500006C080E099C0E1E8CE2EF0E4BF2EE88424
:100B60008E2D82958F70E984E29450EFE522E82A79
:100B70008B81D8804D2D59816A81782F7F71282FE4
:100B8000207487FF53C0DB01CA0135E1B695A795F4
:100B9000979587953A95D1F7A82EDB01CA014DE0CC
:100BA000B695A795979587954A95D1F7807E962F0C
:100BB0009370F92EF82A6894F3F8952E222311F0F9
:100BC0006894E6F860E0F80182810E946C018B2D48
:100BD0000E94B3048A2D0E94B3048F2D0E94B30497
:100BE000892D0E94B3048D2D0E94B3048E2D0E9486
:100BF000B3047E0197012C1B3D0BFFEFEF1AFF0A98
:100C00008885982F92959F7089858295807F892B02
:100C100082171306F9F0F4F0F70183850E94B304FC
:100C2000E9CF62E8C62E72E4B72E99CF83E07695BD
:100C30006795579547958A95D1F7A42EFD2CF29488
:100C4000FF0C90EEF922222311F06894F4F8D12CD5
:100C5000912CB8CF61E0F80182810E946C0160E0C4
:100C6000F80182810E946C018C2D0E94B30461E026
:100C7000F80182810E946C018885982F92959F705F
:100C800089858295807F892BDF91CF911F910F916C
:100C9000FF90EF90DF90CF90BF90AF909F9008951E
:100CA0008F929F92AF92BF92CF92DF92EF92FF927C
:100CB0000F931F93CF93DF93EC015B01FC013C96F4
:100CC00088E0DF011D928A95E9F7CB010E94360585
:100CD00080FD14C014E981FD12C08B818F7D8B8350
:100CE000CE01DF91CF911F910F91FF90EF90DF9098
:100CF000CF90BF90AF909F908F90089510E960E0E3
:100D0000F50182810E946C01812F0E94B3048FEF54
:100D10000E94B304082F8FEF0E94B304E82E8FEFD8
:100D20000E94B304F82E8FEF0E94B304182F8FEFA8
:100D30000E94B304282F2295207F98859F70922BC4
:100D40009887282F22952F709985907F922B9987CD
:100D50004E01C82ED12CC4018C1B9D0B8C159D05FA
:100D600054F48FEF0E94B304D4011C968C93BFEF10
:100D70008B1A9B0AF0CF61E0F50182810E946C0121
:100D80006E2D70E09B01A3E035952795AA95E1F7BC
:100D90008B8120FB87F98B83282F207E87FF39C02A
:100DA0004E2D50E070E060E0802F90E0B0E0A0E0D9
:100DB00035E1880F991FAA1FBB1F3A95D1F79F29CC
:100DC000812B6A017B01EDE0CC0CDD1CEE1CFF1CCD
:100DD000EA95D1F7CC24DD24FCE1EF22FF248C2915
:100DE0009D29AE29BF29BA015527442744275527F5
:100DF00063707727842B952BA62BB72B8883998339
:100E0000AA838B2F8F71282B2F7B2B838B81806262
:100E100066CF38E0039FC0011124092E000CAA0BF5
:100E2000BB0B4E2D429546954770842B8883998342
:100E3000AA838B2F8F7194E0759567959A95E1F74A
:100E4000282B60FB26F9E1CF8F929F92AF92BF9241
:100E5000FF920F931F93CF93DF93EC014A015B0145
:100E60000E94340460E08A810E946C0180EC0E9440
:100E7000B30461E08A810E946C01CE010E94FD04EE
:100E8000CE010E94BA0420E640E660E6CE010E9450
:100E9000520520E640E660E7CE010E94520580E15F
:100EA000881687E29806A104B10409F440C080E2E4
:100EB00088168EE49806A104B10409F45AC080E5AE
:100EC000881683EC9806A104B10409F457C080EA9F
:100ED000881686E8980681E0A806B10409F453C094
:100EE00088E4881688EE980681E0A806B10409F423
:100EF0004FC080E9881680ED980683E0A806B1040B
:100F000009F44BC080E2881681EA980687E0A806BB
:100F1000B10409F447C080E4881682E498068FE0A3
:100F2000A806B10441F412E800EDF12C04C015E06C
:100F300008EB41E3F42E4F2D6AE2CE010E947405C6
:100F4000402F69E2CE010E947405412F68E2CE0174
:100F50000E94740520E040EE6FE0CE01DF91CF915A
:100F60001F910F91FF90BF90AF909F908F900C9426
:100F7000520515E008EB38E1F32EDDCF15E008EB64
:100F800029E0F22ED8CF15E008EB94E0F92ED3CF6C
:100F900015E008EB83E0F82ECECF15E008EBFF2438
:100FA000F394C9CF15E008EBC0CFFC0101900020FD
:100FB000E9F73197AF01481B590BBC0184E891E078
:100FC0000C9432038F929F92AF92BF920F931F9314
:100FD000CF93DF93CDB7DEB7A1970FB6F894DEBFFE
:100FE0000FBECDBF19A2423008F44AE08E010F5D5A
:100FF0001F4F842E912CB12CA12CA50194010E948D
:10100000A20DE62FB901CA01EA30F4F4E05DD8017F
:10101000EE938D01232B242B252B79F790E080E094
:10102000109719F0CD010E94D507A1960FB6F8943C
:10103000DEBF0FBECDBFDF91CF911F910F91BF904B
:10104000AF909F908F900895E95CE1CF4F925F92AF
:101050006F927F928F929F92AF92BF92CF92DF92C8
:10106000EF92FF920F931F93CF936B017C01742E2D
:10107000AC019B010E944D10882399F085E391E01B
:10108000CF911F910F91FF90EF90DF90CF90BF9085
:10109000AF909F908F907F906F905F904F900C9447
:1010A000D50746015701E894B7F82FEF3FEF4FE718
:1010B0005FE7C501B4010E944D1081110DC02FEFF3
:1010C0003FEF4FE75FE7C501B4010E94370E1816E6
:1010D0001CF489E391E0D4CF2FEF3FEF4FE75FE4BB
:1010E000C701B6010E94DB0F18161CF48DE391E0D6
:1010F000C7CF2FEF3FEF4FE75FECC701B6010E946C
:10110000370E87FDF3CF20E030E0A901C701B6011B
:101110000E94370E10E000E087FF0AC06DE284E80D
:1011200091E00E94B3038C01F7FAF094F7F8F09481
:10113000C0E060E070E080E09FE37C1641F020E0DA
:1011400030E040E251E40E943C0ECF5FF6CFA701B1
:1011500096010E94CB0D2B013C010E94EA0E4B012F
:101160005C014AE00E94E2077C01E00EF11ECC2304
:10117000C1F1C501B4010E94190F9B01AC01C3016B
:10118000B2010E94CA0D4B015C016EE284E891E05D
:101190000E94B303E80EF91EC15018F120E030E0C0
:1011A00040E251E4C501B4010E94E00F2B013C0173
:1011B0000E94EA0E4B01B12CA12C4AE0C501B401FA
:1011C0000E94E207E80EF91EC501B4010E94190F42
:1011D0009B01AC01C301B2010E94CA0D4B015C012D
:1011E000DBCFC701CF911F910F91FF90EF90DF9060
:1011F000CF90BF90AF909F908F907F906F905F90B7
:101200004F9008951F920F920FB60F9211242F93B3
:101210003F938F939F93AF93BF9380916E01909173
:101220006F01A0917001B091710130916D0123E0C7
:10123000230F2D3758F50196A11DB11D20936D0187
:1012400080936E0190936F01A0937001B093710130
:101250008091720190917301A0917401B091750118
:101260000196A11DB11D8093720190937301A0930B
:101270007401B0937501BF91AF919F918F913F9190
:101280002F910F900FBE0F901F90189526E8230FF7
:101290000296A11DB11DD2CF1F920F920FB60F92D1
:1012A00011248F939F938091E1009091E100937FAF
:1012B0009093E10083FF0FC01092E90091E09093BA
:1012C000EB001092EC0092E39093ED0010928301FA
:1012D00098E09093F00082FF22C093E09093E900A1
:1012E0009091F200992319F09AE39093E80090917D
:1012F0006A01992341F090916A01915090936A019B
:10130000911101C05D9890918201992341F09091D3
:101310008201915090938201911101C0289884FF1D
:1013200018C08091E2008E7E81608093E2008091FF
:10133000E1008F7E8093E10080916B018E7E806161
:1013400080936B019F918F910F900FBE0F901F9014
:10135000189580FFF7CF8091E2008E7E80618093A8
:10136000E2008091E1008E7E8093E10080916B012C
:101370008E7E8160E5CF1F920F920FB60F921124DF
:10138000CF92DF92EF92FF920F931F932F933F9391
:101390004F935F936F937F938F939F93AF93BF937D
:1013A000EF93FF93CF93DF93CDB7DEB76C97DEBF9C
:1013B000CDBF1092E9008091E80083FF25C068E06E
:1013C000CE0145960E94250382EF8093E8008D8927
:1013D00087FF39C09091E80090FFFCCF982F90765E
:1013E00009F034C19E894F89588D2F89F88C91114D
:1013F00031C0803861F580916C018093F1001092CA
:10140000F1008EEF8093E8006C960FB6F894DEBF83
:101410000FBECDBFDF91CF91FF91EF91BF91AF9103
:101420009F918F917F916F915F914F913F912F91FC
:101430001F910F91FF90EF90DF90CF900F900FBE14
:101440000F901F9018959EEF9093E800C7CF1092D1
:10145000F100D5CF913059F48111D3CF41305105EE
:1014600081F680916C018D7F80936C01CACF93309F
:1014700049F48111C6CF4130510519F680916C01B4
:101480008260F2CF953041F48091E80080FFFCCF7C
:1014900020682093E300B5CF963009F0A9C00B8DEA
:1014A0001C8D22E01092E9001092680110926701F1
:1014B000F2122EC010926601109265010E94F40291
:1014C0001F8299E09983FA8291E09E8390EA98873F
:1014D0009AEF99872091670130916801275F3F4F0C
:1014E0003C832B838D831092E90010926801109247
:1014F0006701109366010093650149E050E0BE0169
:101500006F5F7F4F80E00E94CE020E94F40279CF8D
:1015100010936601009365010E945801DC01129648
:101520000D911C910115110509F451C1D801ED91DE
:10153000FC910480F581E02DBE016B5E7F4FC801F8
:101540000995009709F03EC1F80100851185EACFA1
:10155000F3E0FF120EC08F89882309F440C0823067
:1015600061F440E86DE080E191E00E949B0281110E
:1015700048CF81E28093EB0047CF813029F440E8E7
:101580006BE084E091E0F1CF833099F70E9458013D
:10159000DC011296ED90FC908E010F5F1F4F6801E9
:1015A000E114F10479F0D701ED91FC910680F78107
:1015B000E02DB801C7010995080F111DF701E0845E
:1015C000F184EECFD8011C92F60101900020E9F7DA
:1015D0003197BF016C197D0940E0C601C6CF6EEEA0
:1015E00070E0FB01449150E080E80E94CE0209CFF8
:1015F000973009F4BECF983021F481E08093F10058
:1016000000CF993009F0FDCE837009F0B2CFEDE044
:10161000F1E081E031E096E32191222371F08093A3
:10162000E9003093EB00DF0111972C912093EC003F
:101630009093ED008F5F873079F78EE78093EA0013
:101640001092EA008F8980938301DBCE8B8D9C8D75
:101650001092E90010926801109267019093660160
:1016600080936501898D811192C08E899D89913AFF
:1016700049F4813209F07DCF47E050E064E071E049
:1016800080E0B3CF913209F074CF833269F48F894F
:10169000988DB0E0A0E08093000190930101A093A9
:1016A0000201B0930301ADCE803269F48091E8006D
:1016B00082FFFCCF67E084E091E00E9425038BEF7E
:1016C0008093E8009ECE823209F09BCE8F89809372
:1016D0000B01EEEFFFE7859194918B3F9C4D51F10B
:1016E000E0E0F8E08091040190910501A0910601ED
:1016F000B0910701803B9440A105B105F1F48091C0
:101700000B0180FD1AC0EE3F8AE0F80789F587E7F4
:1017100097E791838083809160008093690188E1DD
:101720009BE00FB6F894A895809360000FBE90934D
:10173000600067CEEEEFFAE0D5CF808191818737E8
:10174000974709F05ECEA8958091600088618093EC
:1017500060008091690180936000EE3F2AE0F2070B
:1017600089F08091FE0A9091FF0A9183808349CE8F
:10177000808191818737980751F29093FF0A809377
:10178000FE0AC5CF1092FF0A1092FE0A3ACE0E94BE
:101790005801DC0112960D911C910115110509F4F7
:1017A000E8CED801ED91FC910190F081E02DBE01D1
:1017B0006B5E7F4FC8010995811123CEF80100852A
:1017C0001185EBCF181619060CF41BCED2CEF1E022
:1017D000FF12BECE62EF70E004CFCF93DF93E4E858
:1017E000F1E01382128288EE93E0A0E0B0E08483FF
:1017F0009583A683B78387E191E0918380838FEF00
:101800009FEF9587848787E392E00E94FD0080ED3B
:1018100097E0A0E0B0E08093E0019093E101A09315
:10182000E201B093E30180E293E0A0E0B0E08093B6
:10183000D8019093D901A093DA01B093DB0184EE33
:1018400091E00E94FD008FE092E00E94FD00CCE05C
:10185000D2E089E291E0998388838AE08A8361E01B
:101860000E94DD0161E08A81DF91CF910C946C01CF
:10187000789484B5826084BD84B5816084BD85B56B
:10188000826085BD85B5816085BD80916E00816077
:1018900080936E001092810080918100826080931D
:1018A000810080918100816080938100809180001F
:1018B000816080938000809191008260809391008C
:1018C000809191008160809391008091900081606F
:1018D000809390008091C10084608093C1008091CA
:1018E000C10082608093C1008091C10081608093BB
:1018F000C1008091C30081608093C3008091C000CB
:1019000082608093C0008091C20081608093C20099
:1019100080917A00846080937A0080917A0082605E
:1019200080937A0080917A00816080937A00809120
:101930007A00806880937A001092830110926C0183
:1019400010926B018091D70081608093D70080EA6C
:101950008093D80089B5806189BD89B5826089BDD1
:1019600009B400FEFDCF0E9455028091D8008F7C03
:1019700080618093D8008091E000807F8093E000B8
:101980008091E1008E7E8093E1008DE08093E20003
:10199000559A209A5D9828988FEF9FEF9093910128
:1019A000809390010E94340440E251EA67E070E0C5
:1019B0008CE092E00E94240760E089E10E94DD0152
:1019C00060E08AE10E94DD0160E08BE10E94DD01C0
:1019D00061E082E10E94DD0161E083E10E94DD01BE
:1019E00061E084E10E94DD0161E085E10E94DD01AA
:1019F00000E010E084ED91E00E946A04882309F47D
:101A000096C08AE10E940E0290934C0280934B0292
:101A10008BE10E940E02EC0190934E0280934D02E6
:101A200060914B0270914C0290E080E00E94190F8F
:101A300020E030EC4FE754E40E943C0E20E030EC14
:101A40004AE553E40E94E00F6B017C01BE0190E087
:101A500080E00E94190F20E030EC4FE754E40E9430
:101A60003C0E20E030E04AEF52E40E94E00F2B01F0
:101A70003C0120E030EC45E852E4C701B6010E9489
:101A8000CA0D4B015C0120E030E048E451E4C301A1
:101A9000B2010E94CA0D6B017C0181E491E00E94B9
:101AA000D50742E0C501B4010E9426088FE491E009
:101AB0000E94D50781E591E00E94D50784E591E079
:101AC0000E94D50742E0C701B6010E94260882E6BF
:101AD00091E00E94D50781E591E00E94D507C501FC
:101AE000B4010E94B30E20934F02309350024093F2
:101AF00051025093520260935302709354028093A8
:101B0000550290935602C701B6010E94B30E20936E
:101B10005702309358024093590250935A026093EF
:101B20005B0270935C0280935D0290935E028CED89
:101B300091E00E946A040115110509F45BCF0E942F
:101B4000000058CFA1E21A2EAA1BBB1BFD010DC03D
:101B5000AA1FBB1FEE1FFF1FA217B307E407F5075D
:101B600020F0A21BB30BE40BF50B661F771F881F39
:101B7000991F1A9469F760957095809590959B01CF
:101B8000AC01BD01CF010895EE0FFF1F0590F49148
:101B9000E02D09945058BB27AA270E94E20D0C940F
:101BA000A10F0E94930F38F00E949A0F20F039F491
:101BB0009F3F19F426F40C94800F0EF4E095E7FB98
:101BC0000C947A0FE92F0E94B20F58F3BA176207EC
:101BD00073078407950720F079F4A6F50C94D40FC9
:101BE0000EF4E0950B2EBA2FA02D0B01B901900138
:101BF0000C01CA01A0011124FF27591B99F0593F7C
:101C000050F4503E68F11A16F040A22F232F342FC3
:101C10004427585FF3CF469537952795A795F04011
:101C20005395C9F77EF41F16BA0B620B730B840B26
:101C3000BAF09150A1F0FF0FBB1F661F771F881FDE
:101C4000C2F70EC0BA0F621F731F841F48F4879536
:101C500077956795B795F7959E3F08F0B0CF939528
:101C6000880F08F09927EE0F9795879508950E94A1
:101C7000560F08F481E008950E94500E0C94A10FB5
:101C80000E949A0F58F00E94930F40F029F45F3F92
:101C900029F00C947A0F51110C94D50F0C94800FED
:101CA0000E94B20F68F39923B1F3552391F3951B6A
:101CB000550BBB27AA2762177307840738F09F5F6D
:101CC0005F4F220F331F441FAA1FA9F335D00E2EDA
:101CD0003AF0E0E832D091505040E695001CCAF747
:101CE0002BD0FE2F29D0660F771F881FBB1F26170A
:101CF00037074807AB07B0E809F0BB0B802DBF01E1
:101D0000FF2793585F4F3AF09E3F510578F00C94AF
:101D10007A0F0C94D50F5F3FE4F3983ED4F3869589
:101D200077956795B795F7959F5FC9F7880F911DD0
:101D30009695879597F90895E1E0660F771F881FBC
:101D4000BB1F621773078407BA0720F0621B730B6F
:101D5000840BBA0BEE1F88F7E0950895BEE304D01C
:101D600008F490E80895BFE322273327A9010E94D1
:101D7000BA0F60F19F5748F1B91740F1BFE3B91BA3
:101D80009927B8503AF4660F771F881F991FB395AB
:101D9000D2F316C0B8504AF0232F342F452F562FB8
:101DA000672F782F8827B850BAF7B85F49F0869523
:101DB000779567955795479537952795BA95B9F7CC
:101DC00016F40E94830F88940895889460E070E070
:101DD000CB0108950E94BA0F88F09F5798F0B92F51
:101DE0009927B751B0F0E1F0660F771F881F991F50
:101DF0001AF0BA95C9F714C0B13091F00E94D40F0F
:101E0000B1E008950C94D40F672F782F8827B85F1E
:101E100039F0B93FCCF3869577956795B395D9F7A7
:101E20003EF490958095709561957F4F8F4F9F4FB1
:101E30000895E89409C097FB3EF4909580957095BD
:101E400061957F4F8F4F9F4F9923A9F0F92F96E906
:101E5000BB279395F695879577956795B795F1117B
:101E6000F8CFFAF4BB0F11F460FF1BC06F5F7F4F18
:101E70008F4F9F4F16C0882311F096E911C077232A
:101E800021F09EE8872F762F05C0662371F096E833
:101E9000862F70E060E02AF09A95660F771F881F02
:101EA000DAF7880F9695879597F90895990F0008A6
:101EB000550FAA0BE0E8FEEF16161706E807F9071C
:101EC000C0F012161306E407F50798F0621B730BB7
:101ED000840B950B39F40A2661F0232B242B252B38
:101EE00021F408950A2609F4A140A6958FEF811DDB
:101EF000811D089597F99F6780E870E060E008957C
:101F00009FEF80EC08959095809570956095509521
:101F10004095309521953F4F4F4F5F4F6F4F7F4F0B
:101F20008F4F9F4F089500240A941616170618061F
:101F30000906089500240A941216130614060506CD
:101F40000895092E0394000C11F4882352F0BB0F5E
:101F500040F4BF2B11F460FF04C06F5F7F4F8F4FC1
:101F60009F4F089557FD9058440F551F59F05F3FFC
:101F700071F04795880F97FB991F61F09F3F79F0AB
:101F800087950895121613061406551FF2CF46952D
:101F9000F1DF08C0161617061806991FF1CF8695AF
:101FA0007105610508940895E894BB276627772793
:101FB000CB0197F908950E94560F08F48FEF08950A
:101FC0000E94F30F0C94A10F0E94930F38F00E940F
:101FD0009A0F20F0952311F00C947A0F0C94800F37
:101FE00011240C94D50F0E94B20F70F3959FC1F38A
:101FF000950F50E0551F629FF001729FBB27F00DB7
:10200000B11D639FAA27F00DB11DAA1F649F66270B
:10201000B00DA11D661F829F2227B00DA11D621F5A
:10202000739FB00DA11D621F839FA00D611D221F14
:10203000749F3327A00D611D231F849F600D211DF8
:10204000822F762F6A2F11249F5750409AF0F1F07B
:1020500088234AF0EE0FFF1FBB1F661F771F881FE4
:1020600091505040A9F79E3F510580F00C947A0F93
:102070000C94D50F5F3FE4F3983ED4F386957795A3
:102080006795B795F795E7959F5FC1F7FE2B880F8A
:10209000911D9695879597F908950E94560F880B84
:0820A000990B0895F894FFCF9D
:1020A800FFFFFFFF00E100000000000000C1808189
:1020B80000000000000000B3033203D403C9031A70
:1020C80004D803F603000000002407A1044E0550BD
:1020D800062C0590056E616E00696E66006F766667
:1020E8000054656D70657261747572653A200043BD
:1020F800000D0A0020202048756D69646974793ADA
:04210800200025008E
:00000001FF
