:100000000C94D3000C94FB000C94FB000C94FB00AC
:100010000C94FB000C94FB000C94FB000C94FB0074
:100020000C94FB000C94FB000C9424080C94930893
:100030000C94FB000C94FB000C94FB000C94FB0054
:100040000C94FB000C94FB000C94FB000C94FB0044
:100050000C94FB000C94FB000C94FB000C94DA074E
:100060000C94FB000C94FB000C94FB000C94FB0024
:100070000C94FB000C94FB000C94FB000C94FB0014
:100080000C94FB000C94FB000C94FB000C94FB0004
:100090000C94FB000C94FB000C94FB000C94FB00F4
:1000A0000C94FB000C94FB000C94FB00080B00026A
:1000B0000202000009040000010202000005240001
:1000C0001001052401010104240206052406000193
:1000D0000705810310004009040100020A00000026
:1000E00007050202400000070583024000000403E8
:1000F000090412010002EF02014041233780000190
:100100000102030141726475696E6F204C4C43001B
:1001100041726475696E6F204D6963726F000706E6
:1001200005040100080A0B0C0D090000000200097B
:100130000F0000030401000C00000000000000009C
:100140000000000000000000000000000025002862
:10015000002B002E00310000000000240027002AA0
:10016000002D00300004040404040304050202020C
:100170000204030202020206060606060604040240
:100180000202040404080201104080401020408054
:1001900040800802040180402010020110801020DD
:1001A00040402000E20A11241FBECFEFDAE0DEBF9C
:1001B000CDBF11E0A0E0B1E0EEE2F9E102C00590B0
:1001C0000D92A833B107D9F722E0A8E3B1E001C04E
:1001D0001D92A433B207E1F710E0C3EDD0E004C0F4
:1001E0002197FE010E948F0CC23DD107C9F70E94E2
:1001F0002E0B0C94950C0C94000090E0FC01EC5735
:10020000FE4F24918B599E4FFC018491882399F0D5
:1002100090E0880F991FFC01E95AFE4FA591B49117
:10022000FC01E75BFE4F859194918FB7F894EC91B8
:10023000E22BEC938FBF0895FC0180915701882336
:1002400011F13FB7F89482E08093E9002091F20029
:10025000822F90E01816190614F481E090E08823AC
:1002600039F0289A44E6409356014091F1004083CA
:10027000222339F02091F200211103C02BE62093B4
:10028000E8003FBF08958FEF9FEF08952FB7F894D0
:1002900083E08093E9009091E800892F807295FFB8
:1002A00004C09091F20080E4891B2FBF08958091D3
:1002B0004E0181110DC082E080934A0184E0809359
:1002C0004B0110924D0110924C0181E080934E0140
:1002D0008AE491E00895282F30E0F901E65DFE4FB1
:1002E0009491F901EC57FE4F84912B593E4FF9013F
:1002F0002491222309F430C09923E9F091509F30D2
:10030000D0F4E92FF0E0E957FE4F0C948F0CB501C3
:10031000B9019601AD01B1019B019B019B01BC019B
:10032000C201C601CA01D0019B01D4019091800095
:100330009F7790938000E22FF0E0EE0FFF1FE75BC6
:10034000FE4FA591B4919FB7F894EC91611132C022
:1003500080958E238C939FBF0895909180009F7D00
:10036000E8CF90918000977FE4CF94B59F7794BDBC
:10037000E2CF94B59F7DFBCF909190009F779093B3
:100380009000D9CF909190009F7DF9CF90919000EF
:10039000977FF5CF9091C0009F779093C000CBCF0F
:1003A0009091C0009F7DF9CF9091C200977F90936C
:1003B000C200C1CF8E2BCECF3FB7F89480914601BB
:1003C00090914701A0914801B091490126B5A89BA1
:1003D00005C02F3F19F00196A11DB11D3FBFBA2FD7
:1003E000A92F982F8827BC01CD01620F711D811D97
:1003F000911D42E0660F771F881F991F4A95D1F71C
:1004000008958F929F92AF92BF92CF92DF92EF9218
:10041000FF924B015C010E94DC016B017C010E9498
:10042000DC016C197D098E099F09683E73408105C6
:100430009105A8F321E0821A9108A108B10888EE7D
:10044000C80E83E0D81EE11CF11C81149104A104A4
:10045000B10429F7FF90EF90DF90CF90BF90AF905D
:100460009F908F90089540913B0150913C012091C5
:10047000390130913A0142175307B4F49091E800E2
:100480009570E1F39091E80092FD19C08093F1001E
:1004900080913B0190913C0101968F739927892BA4
:1004A00019F48EEF8093E80080913B0190913C011C
:1004B000019690933C0180933B0181E0089580E098
:1004C0000895EF92FF920F931F93CF93DF93F82E2F
:1004D000192FE62E042F81E0860F880F0E94330229
:1004E00083E00E943302CF2DD12FEC0EFD2EF11CA4
:1004F000CE15DF05B9F007FF13C0FE0184910E94FD
:100500003302182F80E00E9433028123219681114B
:10051000EFCFDF91CF911F910F91FF90EF90089552
:100520008881EDCF81E0F5CFDF92EF92FF920F93BC
:100530001F93CF93DF93D82E8A01EB017B01E40E4A
:10054000F51ECE15DF0559F0D7FE12C0FE018491CD
:100550000E94330221968111F4CF0FEF1FEFC801E3
:10056000DF91CF911F910F91FF90EF90DF90089551
:100570008881EECF0F931F93CF93DF931F92CDB758
:10058000DEB782E0898342E450E06CEA70E080E804
:100590000E9494020E945701DC0112960D911C9159
:1005A0000115110589F0D801ED91FC910280F381CC
:1005B000E02DBE016F5F7F4FC801099597FD04C014
:1005C000F80100851185ECCF89810F90DF91CF91E3
:1005D0001F910F910895615030F02091F100FC01BE
:1005E00020830196F8CF289A84E6809356010895D7
:1005F0008F929F92AF92BF92CF92DF92EF92FF9233
:100600000F931F93CF93DF936C017B018A0180913D
:100610000B01882309F45CC080915701882309F4F9
:1006200057C080913F0180FF05C08091E00082604B
:100630008093E000E801B12C8AEFA82E93E0892E88
:100640002AE3922E209711F4BB20D9F10E94460193
:1006500081110AC0AA94AA20D9F161E070E080E07B
:1006600090E00E940102EECF8C171D0611F00CF0F5
:100670008C2F9FB7F8948092E9002091E80025FD27
:1006800002C09FBFDFCF282F30E0C21BD30BF70182
:10069000815020F041914093F100FACFE20EF31E19
:1006A000BB2021F09092E800B12CEBCF8091E800C4
:1006B00085FDE7CF9092E800BB24B394209709F31F
:1006C000F3CF5D9A84E680933E01101611063CF04C
:1006D00081E090E0F6019383828310E000E0C8019E
:1006E000DF91CF911F910F91FF90EF90DF90CF900E
:1006F000BF90AF909F908F900895CF93DF931F92FC
:10070000CDB7DEB76983DC01ED91FC910280F38106
:10071000E02D41E050E0BE016F5F7F4F09950F90E3
:10072000DF91CF91089583E08093E9008091F200FA
:10073000882319F08AE38093E80008950E94460117
:1007400090E00895CF93DF931F92CDB7DEB7FC0101
:100750008485958597FD08C02FEF3FEF3587248767
:100760000F90DF91CF910895CE0101960E941C0158
:10077000019719F4898190E0F3CF8FEF9FEFF0CFCD
:100780000F931F93CF93DF931F92CDB7DEB78C01EA
:10079000FC018485958597FF0BC0CE0101960E94D0
:1007A0001C01019771F4898190E0F8019587848795
:1007B000F801848595850F90DF91CF911F910F915E
:1007C00008958FEF9FEFF1CFFC018485958597FD0C
:1007D0000BC09FB7F89482E08093E9008091F2000B
:1007E0009FBF90E0019608959FB7F89482E08093B0
:1007F000E9008091F2009FBF90E00895CF93CFB7BA
:10080000F89480913801811124C0E6E7F1E08491E9
:10081000E5E9F1E09491E82FF0E0EE0FFF1FE95ACF
:10082000FE4FA591B491EC91E92321F461E081E1BF
:100830000E946B0181E10E94FD008CB580618CBD3E
:100840008CB580648CBD8FE00E94FD0080E10E9429
:10085000FD00809138018F5F80933801CFBFCF9129
:1008600008959FB7F89480913801882319F081503A
:100870008093380180913801811103C08CB58F7B42
:100880008CBD9FBF08958EBD00000DB407FEFDCF47
:100890008EB508950F931F93CF93DF93EC0160E023
:1008A0008A810E946B0182E00E94430481E30E94DE
:1008B00043040DE010E080E00E9443040150110960
:1008C000D1F761E08A810E946B0160E08A810E9419
:1008D0006B0182E00E94430481E40E9443040DE026
:1008E00010E080E00E94430401501109D1F761E05B
:1008F0008A810E946B0160E08A810E946B0182E024
:100900000E94430481E50E9443040DE010E080E072
:100910000E94430401501109D1F761E08A81DF91FF
:10092000CF911F910F910C946B010F931F93CF9355
:10093000DF93EC0160E08A810E946B0182E00E94FB
:10094000430481E60E9443040DE010E080E00E9431
:10095000430401501109D1F761E08A810E946B01C3
:1009600060E08A810E946B0182E00E94430481E77B
:100970000E9443040DE010E080E00E944304015017
:100980001109D1F761E08A81DF91CF911F910F9119
:100990000C946B01CF93DF93EC010E949504CE0180
:1009A000DF91CF910C944A041F93CF93DF93EC0116
:1009B00060E08A810E946B0180EA0E9443048FEF0D
:1009C0000E944304182F61E08A810E946B01812FED
:1009D00090E0DF91CF911F9108950E94D40483701D
:1009E00099270895FF920F931F93CF93DF93EC0104
:1009F000F62E042F122F60E08A810E946B0185E0A1
:100A00000E9443048F2D0E944304802F0E944304C0
:100A1000812F0E94430461E08A81DF91CF911F9171
:100A20000F91FF900C946B010F931F93CF93DF9363
:100A3000EC01062F142F60E08A810E946B0182E096
:100A40000E944304802F0E944304812F0E9443048C
:100A500061E08A81DF91CF911F910F910C946B011E
:100A60006F927F928F929F92AF92BF92CF92DF92BE
:100A7000EF92FF920F931F93CF93DF937C018B0133
:100A80000E94D40482FF80C084FF83C086FDC7C05B
:100A900084E8882E94E4792ED80118962C91189722
:100AA000822F82958F7019962C9119972295207F0D
:100AB000282BC22E13968C911397FC911196EC91D2
:100AC00011974F2F5E2F12966C91782F7F71A42E65
:100AD000BE2E382F307487FF61C0DB01CA01E5E10B
:100AE000B695A79597958795EA95D1F7982EDB014E
:100AF000CA01FDE0B695A79597958795FA95D1F728
:100B0000EC01C07EDD27CB0183709927C82BD92B40
:100B1000C860652E332311F02064C22E60E0F70117
:100B200082810E946B01872D0E944304892D0E94BF
:100B300043048C2F0E944304862D0E9443048A2D77
:100B40000E9443048C2D0E9443046801FCE0CF0EF8
:100B5000D11CD0E0C0E0D80118968C911897982F3E
:100B600092959F7019968C918295807F892B8C1716
:100B70001D0641F13CF1F6018081F2E0CF0ED11C5F
:100B80000E9443042196E7CFC1E88C2ED0E47D2E4D
:100B900083CFA2E88A2EB2E47B2E7ECF83E07695C7
:100BA0006795579547958A95D1F7942EE50195E07D
:100BB000CC0FDD1F9A95E1F7DD273111C061A12C23
:100BC000612CACCF61E0D70112968C910E946B0131
:100BD00060E0F70182810E946B01882D0E9443042E
:100BE00061E0D70112968C910E946B01F80180851B
:100BF000982F92959F7081858295807F892B90E0B8
:100C0000DF91CF911F910F91FF90EF90DF90CF90E8
:100C1000BF90AF909F908F907F906F90089590E0DD
:100C200080E0EECF4F925F926F927F928F929F9271
:100C3000AF92BF92CF92DF92EF92FF920F931F93EA
:100C4000CF93DF93EC015B016C018CE0C80ED11CEB
:100C500080E1F60111928A95E9F7CB010E94D40454
:100C600080FD18C014E981FD16C08B818F7D8B83B8
:100C7000CE01DF91CF911F910F91FF90EF90DF9008
:100C8000CF90BF90AF909F908F907F906F905F902C
:100C90004F90089510E960E0F50182810E946B0198
:100CA000812F0E9443048FEF0E944304782E8FEF20
:100CB0000E944304582EE82EF12C8FEF0E9443042B
:100CC000482E8FEF0E944304682E8FEF0E9443044A
:100CD000282F2295207F98859F70922B9887282F08
:100CE00022952F709985907F922B9987912C812C3A
:100CF000082F10E08016910664F48FEF0E944304E1
:100D000090E0F601819391936F01FFEF8F1A9F0A94
:100D1000F1CF61E0F50182810E946B018B81970127
:100D2000B3E036952795BA95E1F720FB87F98B83D9
:100D3000982F907E87FF40C0C52CD12CF12CE12C40
:100D4000472D50E070E060E035E1440F551F661F0D
:100D5000771F3A95D1F75429462946015701EDE00E
:100D6000880C991CAA1CBB1CEA95D1F788249924ED
:100D7000FCE1AF22BB24482959296A297B29760145
:100D8000DD24CC24CC24DD2483E0E822FF244C297C
:100D90005D296E297F29488359836A83272F2F7104
:100DA000A6E016950795AA95E1F7922B00FB96F918
:100DB0009B838B8180625BCFE8E07E9EA001112443
:100DC000970185E0369527958A95E1F7422B532BBD
:100DD00070E060E0488359836A83872F8F7124E035
:100DE000F694E7942A95E1F7982BE0FA96F9E0CF8C
:100DF0008F929F92AF92BF92CF92DF92EF92FF922B
:100E00000F931F93CF93DF93EC014A015B010E9484
:100E1000FE0360E08A810E946B0180EC0E94430423
:100E200061E08A810E946B01CE010E949504CE018F
:100E30000E944A0420E630E040E650E060E670E0C0
:100E4000CE010E94F20420E630E040E650E060E788
:100E500070E0CE010E94F20480E1881687E29806D5
:100E6000A104B10409F444C080E288168EE4980617
:100E7000A104B10409F46BC080E5881683EC9806E0
:100E8000A104B10409F46CC080EA881686E89806CB
:100E900081E0A806B10409F46CC088E4881688EEE5
:100EA000980681E0A806B10409F46CC080E98816B0
:100EB00080ED980683E0A806B10409F46CC080E2D6
:100EC000881681EA980687E0A806B10409F46CC088
:100ED00080E4881682E498068FE0A806B10481F4C5
:100EE00002E810E090EDE92EF12CD12CC12C08C0C5
:100EF00005E010E0B8EBEB2EF12C81E3C82ED12CED
:100F0000A6016AE270E0CE010E941405A70169E221
:100F100070E0CE010E941405A80168E270E0CE01E5
:100F20000E94140530E020E040EE50E06FE070E0F9
:100F3000CE01DF91CF911F910F91FF90EF90DF9045
:100F4000CF90BF90AF909F908F900C94F20405E0EB
:100F500010E0F8EBEF2EF12CA8E1CA2ED12CD0CF67
:100F600005E010E078EBE72EF12CE9E0CE2ED12C55
:100F7000C7CF05E010E058EBE52EF12C64E0C62E5B
:100F8000D12CBECF05E010E038EBE32EF12C43E08E
:100F9000C42ED12CB5CF05E010E098EBE92EF12C52
:100FA000CC24C394D12CACCF05E010E088EBE82E24
:100FB000F12C9BCF1F920F920FB60F9211242F93FB
:100FC0003F938F939F93AF93BF93809142019091F2
:100FD0004301A0914401B09145013091410123E0CA
:100FE000230F2D3758F50196A11DB11D2093410106
:100FF0008093420190934301A0934401B093450133
:101000008091460190914701A0914801B09149011A
:101010000196A11DB11D8093460190934701A093B5
:101020004801B0934901BF91AF919F918F913F913A
:101030002F910F900FBE0F901F90189526E8230F49
:101040000296A11DB11DD2CF1F920F920FB60F9223
:1010500011248F939F938091E1009091E100937F01
:101060009093E10083FF0FC01092E90091E090930C
:10107000EB001092EC0092E39093ED001092570178
:1010800098E09093F00082FF22C093E09093E900F3
:101090009091F200992319F09AE39093E8009091CF
:1010A0003E01992341F090913E01915090933E0171
:1010B000911101C05D9890915601992341F0909152
:1010C0005601915090935601911101C0289884FFC8
:1010D00018C08091E2008E7E81608093E200809152
:1010E000E1008F7E8093E10080913F018E7E8061E0
:1010F00080933F019F918F910F900FBE0F901F9093
:10110000189580FFF7CF8091E2008E7E80618093FA
:10111000E2008091E1008E7E8093E10080913F01AA
:101120008E7E8160E5CF1F920F920FB60F92112431
:10113000CF92DF92EF92FF920F931F932F933F93E3
:101140004F935F936F937F938F939F93AF93BF93CF
:10115000EF93FF93CF93DF93CDB7DEB76C97DEBFEE
:10116000CDBF1092E9008091E80083FF25C068E0C0
:10117000CE0145960E94EB0282EF8093E8008D89B4
:1011800087FF39C09091E80090FFFCCF982F9076B0
:1011900009F034C19E894F89588D2F89F88C91119F
:1011A00031C0803861F5809140018093F100109248
:1011B000F1008EEF8093E8006C960FB6F894DEBFD6
:1011C0000FBECDBFDF91CF91FF91EF91BF91AF9156
:1011D0009F918F917F916F915F914F913F912F914F
:1011E0001F910F91FF90EF90DF90CF900F900FBE67
:1011F0000F901F9018959EEF9093E800C7CF109224
:10120000F100D5CF913059F48111D3CF4130510540
:1012100081F6809140018D7F80934001CACF933049
:1012200049F48111C6CF4130510519F68091400132
:101230008260F2CF953041F48091E80080FFFCCFCE
:1012400020682093E300B5CF963009F0A9C00B8D3C
:101250001C8D22E01092E90010923C0110923B019B
:10126000F2122EC010923A01109239010E94BA0275
:101270001F8299E09983FA8291E09E8390EA988791
:101280009AEF998720913B0130913C01275F3F4FB6
:101290003C832B838D831092E90010923C011092C5
:1012A0003B0110933A010093390149E050E0BE013F
:1012B0006F5F7F4F80E00E9494020E94BA0279CF54
:1012C00010933A01009339010E945701DC011296F4
:1012D0000D911C910115110509F451C1D801ED9131
:1012E000FC910480F581E02DBE016B5E7F4FC8014B
:1012F0000995009709F03EC1F80100851185EACFF4
:10130000F3E0FF120EC08F89882309F440C08230B9
:1013100061F440E86DE080E191E00E94610281119A
:1013200048CF81E28093EB0047CF813029F440E839
:101330006BE084E091E0F1CF833099F70E94570190
:10134000DC011296ED90FC908E010F5F1F4F68013B
:10135000E114F10479F0D701ED91FC910680F78159
:10136000E02DB801C7010995080F111DF701E084B0
:10137000F184EECFD8011C92F60101900020E9F72C
:101380003197BF016C197D0940E0C601C6CF6EEEF2
:1013900070E0FB01449150E080E80E94940209CF84
:1013A000973009F4BECF983021F481E08093F100AA
:1013B00000CF993009F0FDCE837009F0B2CFEDE097
:1013C000F1E081E031E096E32191222371F08093F6
:1013D000E9003093EB00DF0111972C912093EC0092
:1013E0009093ED008F5F873079F78EE78093EA0066
:1013F0001092EA008F8980935701DBCE8B8D9C8DF4
:101400001092E90010923C0110923B0190933A0136
:1014100080933901898D811192C08E899D89913A7D
:1014200049F4813209F07DCF47E050E064E071E09B
:1014300080E0B3CF913209F074CF833269F48F89A1
:10144000988DB0E0A0E08093000190930101A093FB
:101450000201B0930301ADCE803269F48091E800BF
:1014600082FFFCCF67E084E091E00E94EB028BEF0B
:101470008093E8009ECE823209F09BCE8F898093C4
:101480000B01EEEFFFE7859194918B3F9C4D51F15D
:10149000E0E0F8E08091040190910501A09106013F
:1014A000B0910701803B9440A105B105F1F4809112
:1014B0000B0180FD1AC0EE3F8AE0F80789F587E747
:1014C00097E7918380838091600080933D0188E15C
:1014D0009BE00FB6F894A895809360000FBE9093A0
:1014E000600067CEEEEFFAE0D5CF8081918187373B
:1014F000974709F05ECEA89580916000886180933F
:10150000600080913D0180936000EE3F2AE0F20789
:1015100089F08091FE0A9091FF0A9183808349CEE1
:10152000808191818737980751F29093FF0A8093C9
:10153000FE0AC5CF1092FF0A1092FE0A3ACE0E9410
:101540005701DC0112960D911C910115110509F44A
:10155000E8CED801ED91FC910190F081E02DBE0123
:101560006B5E7F4FC8010995811123CEF80100857C
:101570001185EBCF181619060CF41BCED2CEF1E074
:10158000FF12BECE62EF70E004CFCF93DF93FC0179
:1015900080E1DF01C82F1D92CA95E9F7118A108AF0
:1015A000138A128ADF015496ED0119928A95E9F7A0
:1015B00015A214A217A216A280B38F7080BBDF9170
:1015C000CF910895CF93DF93E8E5F1E01382128283
:1015D00088EE93E0A0E0B0E084839583A683B78390
:1015E00087E191E0918380838FEF9FEF95878487D8
:1015F00088EB91E00E94C50A84E190E0A0E0B0E0B1
:101600008093B4019093B501A093B601B093B70154
:101610008AE090E0A0E0B0E08093AC019093AD014F
:10162000A093AE01B093AF0180EE91E00E94C50A95
:1016300088E092E00E94C50AC0E3D2E089E291E02E
:10164000998388838AE090E09B838A830E94FD00CF
:1016500061E08A81DF91CF910C946B01CF93DF938E
:10166000CDB7DEB7A1970FB6F894DEBF0FBECDBFE2
:10167000789484B5826084BD84B5816084BD85B56D
:10168000826085BD85B5816085BD80916E00816079
:1016900080936E001092810080918100826080931F
:1016A0008100809181008160809381008091800021
:1016B000816080938000809191008260809391008E
:1016C0008091910081608093910080919000816071
:1016D000809390008091C10084608093C1008091CC
:1016E000C10082608093C1008091C10081608093BD
:1016F000C1008091C30081608093C3008091C000CD
:1017000082608093C0008091C20081608093C2009B
:1017100080917A00846080937A0080917A00826060
:1017200080937A0080917A00816080937A00809122
:101730007A00806880937A001092570110924001DD
:1017400010923F018091D70081608093D70080EA9A
:101750008093D80089B5806189BD89B5826089BDD3
:1017600009B400FEFDCF61E070E080E090E00E94EF
:1017700001028091D8008F7C80618093D800809195
:10178000E000807F8093E0008091E1008E7E809376
:10179000E1008DE08093E200559A209A5D982898A8
:1017A0000E94FE0340E251EA67E070E080E392E0CD
:1017B0000E94F80680B38F7080BB85E2E82E81E03E
:1017C000F82E9AE0892E912CA12CB12C20E0C22E6B
:1017D00020E0D22E81B3806A81BBF70184912091F1
:1017E0007B00982F990F990F90722F7D922B9093D9
:1017F0007B008770806480937C0080917A00806495
:1018000080937A0080917A0086FDFCCF90917800D9
:10181000809179008927982789272C01092E000CAF
:101820006608770897FF43C06DE288E591E00E9463
:101830007D0322273327A9012419350946095709B1
:1018400019A28E010F5D1F4FCA01B901A5019401B4
:101850000E946D0C605DF80162938F0121153105C6
:101860004105510589F70115110561F0019000202E
:10187000E9F73197AF01401B510BB80188E591E0C2
:101880000E94F80242E050E065E371E088E591E0F3
:101890000E94F80268EE73E080E090E00E9401028E
:1018A000C114D10409F496CF0E94000093CFA30184
:1018B000920119A28E010F5D1F4FCA01B901A50146
:1018C00094010E946D0C605DF80162938F012115F7
:1018D00031054105510589F7C6CFA1E21A2EAA1B91
:1018E000BB1BFD010DC0AA1FBB1FEE1FFF1FA217D0
:1018F000B307E407F50720F0A21BB30BE40BF50BCD
:10190000661F771F881F991F1A9469F76095709555
:10191000809590959B01AC01BD01CF010895EE0F1C
:0E192000FF1F0590F491E02D0994F894FFCF7D
:10192E00FFFFFFFF00E100000000000000C180810A
:10193E00000000000000007D03F8029E039303E404
:10194E0003A203C00300000000F8063104ED0412E8
:08195E0006CA0430050D0A0061
:00000001FF
