:100000000C94CD000C94F5000C94F5000C94F500C4
:100010000C94F5000C94F5000C94F5000C94F5008C
:100020000C94F5000C94F5000C9421080C949008A5
:100030000C94F5000C94F5000C94F5000C94F5006C
:100040000C94F5000C94F5000C94F5000C94F5005C
:100050000C94F5000C94F5000C94F5000C94D70763
:100060000C94F5000C94F5000C94F5000C94F5003C
:100070000C94F5000C94F5000C94F5000C94F5002C
:100080000C94F5000C94F5000C94F5000C94F5001C
:100090000C94F5000C94F5000C94F5000C94F5000C
:1000A0000C94F5000C94F5000C94F500080B00027C
:1000B0000202000009040000010202000005240001
:1000C0001001052401010104240206052406000193
:1000D0000705810310004009040100020A00000026
:1000E00007050202400000070583024000000403E8
:1000F000090412010002EF02014041233780000190
:100100000102030141726475696E6F204C4C43001B
:1001100041726475696E6F204D6963726F000000F3
:10012000000200090F0000030401000C00000000A1
:1001300000000000000000000000000000000000BF
:1001400000250028002B002E0031000000000024B4
:100150000027002A002D00300004040404040304D6
:100160000502020202040302020202060606060655
:100170000604040202020404040802011040804044
:1001800010204080408008020401804020100201BD
:100190001080102040402000C20A11241FBECFEF63
:1001A000DAE0DEBFCDBF11E0A0E0B1E0E8EDF6E1BE
:1001B00002C005900D92AA34B107D9F721E0AAE454
:1001C000B1E001C01D92A63CB207E1F710E0CDEC12
:1001D000D0E004C02197FE010E94640BCC3CD10703
:1001E000C9F70E94FC0A0C946A0B0C94000090E082
:1001F000FC01E858FE4F2491875A9E4FFC018491E0
:10020000882399F090E0880F991FFC01E55BFE4F71
:10021000A591B491FC01E35CFE4F859194918FB759
:10022000F894EC91E22BEC938FBF0895FC01809140
:100230006901882311F13FB7F89482E08093E900C7
:100240002091F200822F90E01816190614F481E034
:1002500090E0882339F0289A44E640936801409161
:10026000F1004083222339F02091F200211103C0D4
:100270002BE62093E8003FBF08958FEF9FEF08958E
:100280002FB7F89483E08093E9009091E800892FDC
:10029000807295FF04C09091F20080E4891B2FBF0B
:1002A00008958091600181110DC082E080935C010E
:1002B00084E080935D0110925F0110925E0181E005
:1002C000809360018CE591E00895282F30E0F901DA
:1002D000E25EFE4F9491F901E858FE4F8491275A4F
:1002E0003E4FF9012491222309F430C09923E9F00B
:1002F00091509F30D0F4E92FF0E0EF57FE4F0C946F
:10030000640BAF01B3019001A701AB019501950109
:100310009501B601BC01C001C401CA019501CE011D
:10032000909180009F7790938000E22FF0E0EE0F95
:10033000FF1FE35CFE4FA591B4919FB7F894EC9139
:10034000611132C080958E238C939FBF0895909148
:1003500080009F7DE8CF90918000977FE4CF94B597
:100360009F7794BDE2CF94B59F7DFBCF9091900095
:100370009F7790939000D9CF909190009F7DF9CF77
:1003800090919000977FF5CF9091C0009F779093C8
:10039000C000CBCF9091C0009F7DF9CF9091C2005B
:1003A000977F9093C200C1CF8E2BCECF3FB7F894EA
:1003B0008091580190915901A0915A01B0915B012F
:1003C00026B5A89B05C02F3F19F00196A11DB11DB0
:1003D0003FBFBA2FA92F982F8827BC01CD01620FEC
:1003E000711D811D911D42E0660F771F881F991FA7
:1003F0004A95D1F7089540914D0150914E012091B9
:100400004B0130914C0142175307B4F49091E8002E
:100410009570E1F39091E80092FD19C08093F1008E
:1004200080914D0190914E0101968F739927892BF0
:1004300019F48EEF8093E80080914D0190914E0168
:10044000019690934E0180934D0181E0089580E0E4
:100450000895EF92FF920F931F93CF93DF93F82E9F
:10046000192FE62E042F81E0860F880F0E94FB01D2
:1004700083E00E94FB01CF2DD12FEC0EFD2EF11C4D
:10048000CE15DF05B9F007FF13C0FE0184910E946D
:10049000FB01182F80E00E94FB018123219681112E
:1004A000EFCFDF91CF911F910F91FF90EF900895C3
:1004B0008881EDCF81E0F5CFDF92EF92FF920F932D
:1004C0001F93CF93DF93D82E8A01EB017B01E40EBB
:1004D000F51ECE15DF0559F0D7FE12C0FE0184913E
:1004E0000E94FB0121968111F4CF0FEF1FEFC8018D
:1004F000DF91CF911F910F91FF90EF90DF900895C2
:100500008881EECF0F931F93CF93DF931F92CDB7C8
:10051000DEB782E0898342E450E06CEA70E080E874
:100520000E945C020E945101DC0112960D911C9107
:100530000115110589F0D801ED91FC910280F3813C
:10054000E02DBE016F5F7F4FC801099597FD04C084
:10055000F80100851185ECCF89810F90DF91CF9153
:100560001F910F910895615030F02091F100FC012E
:1005700020830196F8CF289A84E680936801089535
:100580004F925F926F927F928F929F92AF92BF92A3
:10059000CF92DF92EF92FF920F931F93CF93DF934F
:1005A0006C017B018A0180910B01882309F467C0EB
:1005B00080916901882309F462C08091510180FF14
:1005C00005C08091E00082608093E000E801B12CDA
:1005D0008AEFA82E93E0892E2AE3922E209719F411
:1005E000BB2009F445C00E944001811114C0AA94A7
:1005F000AA2009F444C00E94D6012B013C010E94AC
:10060000D6016419750986099709683E734081050A
:10061000910520F7F4CF8C171D0611F00CF08C2FEC
:100620009FB7F8948092E9002091E80025FD02C070
:100630009FBFD4CF282F30E0C21BD30BF7018150CE
:1006400020F041914093F100FACFE20EF31EBB205F
:1006500021F09092E800B12CEBCF8091E80085FD6D
:10066000E7CF9092E800BB24B394209709F3F3CF2F
:100670005D9A84E680935201101611063CF081E0E9
:1006800090E0F6019383828310E000E0C801DF91DF
:10069000CF911F910F91FF90EF90DF90CF90BF907F
:1006A000AF909F908F907F906F905F904F90089544
:1006B000CF93DF931F92CDB7DEB76983DC01ED9155
:1006C000FC910280F381E02D41E050E0BE016F5FBC
:1006D0007F4F09950F90DF91CF91089583E080932C
:1006E000E9008091F200882319F08AE38093E80002
:1006F00008950E94400190E00895CF93DF931F92E8
:10070000CDB7DEB7FC018485958597FD08C02FEF36
:100710003FEF358724870F90DF91CF910895CE0169
:1007200001960E941601019719F4898190E0F3CF98
:100730008FEF9FEFF0CF0F931F93CF93DF931F9215
:10074000CDB7DEB78C01FC018485958597FF0BC082
:10075000CE0101960E941601019771F4898190E003
:10076000F80195878487F801848595850F90DF913E
:10077000CF911F910F9108958FEF9FEFF1CFFC0163
:100780008485958597FD0BC09FB7F89482E0809390
:10079000E9008091F2009FBF90E0019608959FB715
:1007A000F89482E08093E9008091F2009FBF90E08E
:1007B00008959FB7F89480914A01882319F08150D9
:1007C00080934A0180914A01811103C08CB58F7BCF
:1007D0008CBD9FBF08958EBD00000DB407FEFDCFF8
:1007E0008EB508951F93CF93DF93EC0160E08A816B
:1007F0000E94650182E00E94EB0381E30E94EB030B
:100800001DE080E00E94EB031150D9F761E08A817E
:100810000E94650160E08A810E94650182E00E9479
:10082000EB0381E40E94EB031DE080E00E94EB03F8
:100830001150D9F761E08A810E94650160E08A81E8
:100840000E94650182E00E94EB0381E50E94EB03B8
:100850001DE080E00E94EB031150D9F761E08A812E
:10086000DF91CF911F910C9465011F93CF93DF937C
:10087000EC0160E08A810E94650182E00E94EB0346
:1008800081E60E94EB031DE080E00E94EB03115023
:10089000D9F761E08A810E94650160E08A810E9447
:1008A000650182E00E94EB0381E70E94EB031DE0FB
:1008B00080E00E94EB031150D9F761E08A81DF915B
:1008C000CF911F910C946501CF93DF93EC010E94AF
:1008D0003504CE01DF91CF910C94F2031F93CF9397
:1008E000DF93EC0160E08A810E94650180EA0E944A
:1008F000EB038FEF0E94EB03182F61E08A810E94C7
:100900006501812FDF91CF911F9108950E946E04A0
:1009100083700895FF920F931F93CF93DF93EC01A1
:10092000F62E042F122F60E08A810E94650185E077
:100930000E94EB038F2D0E94EB03802F0E94EB039C
:10094000812F0E94EB0361E08A81DF91CF911F919B
:100950000F91FF900C9465010F931F93CF93DF933A
:10096000EC01062F142F60E08A810E94650182E06D
:100970000E94EB03802F0E94EB03812F0E94EB0368
:1009800061E08A81DF91CF911F910F910C946501F5
:100990009F92AF92BF92CF92DF92EF92FF920F930E
:1009A0001F93CF93DF938C01EB010E946E0482FFB3
:1009B0000AC084FF69C0A4E8CA2EB4E4BB2E86FF37
:1009C00006C080E094C0E1E8CE2EF0E4BF2ED884CB
:1009D000D2945FE0D5228B81E8804E2D59816A81C7
:1009E000782F7F71282F207487FF53C0DB01CA0145
:1009F00035E1B695A795979587953A95D1F7A82EA5
:100A0000DB01CA014DE0B695A795979587954A9564
:100A1000D1F7807E962F9370F92EF82A6894F3F818
:100A2000952E222311F06894D6F860E0F8018281B7
:100A30000E9465018B2D0E94EB038A2D0E94EB031F
:100A40008F2D0E94EB03892D0E94EB038E2D0E94B7
:100A5000EB038D2D0E94EB037E0197012C1B3D0BB8
:100A6000FFEFEF1AFF0A8885982F92959F7089856E
:100A70008295807F892B82171306F9F0F4F0F70135
:100A800083850E94EB03E9CF62E8C62E72E4B72E9D
:100A90009ECF83E076956795579547958A95D1F7D0
:100AA000A42EFE2CF294FF0C90EEF922222311F0DA
:100AB0006894F4F8E12C912CB8CF61E0F8018281C0
:100AC0000E94650160E0F80182810E9465018C2D21
:100AD0000E94EB0361E0F80182810E946501888534
:100AE000982F92959F7089858295807F892BDF91C1
:100AF000CF911F910F91FF90EF90DF90CF90BF901B
:100B0000AF909F9008957F928F929F92AF92BF92E5
:100B1000CF92DF92EF92FF920F931F93CF93DF93C9
:100B2000EC015B01CB010E946E0480FD15C014E94D
:100B300081FD13C08B818F7D8B83CE01DF91CF919F
:100B40001F910F91FF90EF90DF90CF90BF90AF90EB
:100B50009F908F907F90089510E960E0F501828169
:100B60000E946501812F0E94EB038FEF0E94EB032F
:100B7000E82E8FEF0E94EB03782E8FEF0E94EB039D
:100B8000F82E8FEF0E94EB03082F8FEF0E94EB03EC
:100B9000182F982F9F70292F2295207F88858F707E
:100BA000822B88878985807F89874E01C92ED12C29
:100BB000C4018C1B9D0B8C159D054CF48FEF0E947E
:100BC000EB03F4018487FFEF8F1A9F0AF1CF61E0F6
:100BD000F50182810E946501672D70E09B01A3E011
:100BE00035952795AA95E1F78B8120FB87F98B83B3
:100BF000282F207E87FF3AC0472D50E070E060E04C
:100C00008E2D90E0B0E0A0E035E1880F991FAA1F7B
:100C1000BB1F3A95D1F79F29802B6A017B01EDE03C
:100C2000CC0CDD1CEE1CFF1CEA95D1F7CC24DD2496
:100C3000FCE1EF22FF248C299D29AE29BF29BA01AE
:100C4000552744274427552763707727842B952BF6
:100C5000A62BB72B88839983AA838B2F8F71282B80
:100C600016FB26F92B838B81806266CF38E0E39EEA
:100C7000C0011124092E000CAA0BBB0B472D429575
:100C800046954770842B88839983AA838B2F8F7115
:100C900094E0759567959A95E1F7282B60FB26F906
:100CA000E1CFAF92BF92CF92DF92EF92FF920F937C
:100CB0001F93CF93DF93EC016A017B01AFB6F894E9
:100CC00080914A01811124C0EAE6F1E08491E9E8CB
:100CD000F1E09491E82FF0E0EE0FFF1FE55BFE4F8F
:100CE000A591B491EC91E92321F461E081E10E94A6
:100CF000650181E10E94F7008CB580618CBD8CB5E7
:100D000080648CBD8FE00E94F70080E10E94F700B4
:100D100080914A018F5F80934A01AFBE60E08A8173
:100D20000E94650180EC0E94EB0361E08A810E94D1
:100D30006501CE010E943504CE010E94F20320E637
:100D400040E660E6CE010E948A0420E640E660E7C5
:100D5000CE010E948A0480E1C81687E2D806E10429
:100D6000F10409F440C080E2C8168EE4D806E1041C
:100D7000F10409F45BC080E5C81683ECD806E104F1
:100D8000F10409F458C080EAC81686E8D80681E064
:100D9000E806F10409F454C088E4C81688EED806C1
:100DA00081E0E806F10409F450C080E9C81680ED3E
:100DB000D80683E0E806F10409F44CC080E2C816C6
:100DC00081EAD80687E0E806F10409F448C080E427
:100DD000C81682E4D8068FE0E806F10441F412E870
:100DE00000EDB12C04C015E008EB41E3B42E4B2D0F
:100DF0006AE2CE010E94AC04402F69E2CE010E945B
:100E0000AC04412F68E2CE010E94AC0420E040EE29
:100E10006FE0CE01DF91CF911F910F91FF90EF9086
:100E2000DF90CF90BF90AF900C948A0415E008EB50
:100E300038E1B32EDCCF15E008EB29E0B22ED7CF96
:100E400015E008EB94E0B92ED2CF15E008EB83E073
:100E5000B82ECDCF15E008EBBB24B394C8CF15E076
:100E600008EBBFCFFC0101900020E9F73197AF01FB
:100E7000481B590BBC018AE691E00C94C0028F928A
:100E80009F92AF92BF920F931F93CF93DF93CDB7F3
:100E9000DEB7A1970FB6F894DEBF0FBECDBF19A283
:100EA000423008F44AE08E010F5D1F4F842E912CD2
:100EB000B12CA12CA50194010E94420BE62FB9018F
:100EC000CA01EA30F4F4E05DD801EE938D01232BE2
:100ED000242B252B79F790E080E0109719F0CD01B5
:100EE0000E943207A1960FB6F894DEBF0FBECDBFA9
:100EF000DF91CF911F910F91BF90AF909F908F90F6
:100F00000895E95CE1CFCF92DF92EF92FF920F93C9
:100F10001F93CF93DF9303E111E0CAEBD1E0C12C23
:100F2000D12C7601F80190810E5F1F4F80917C00DB
:100F3000807F9F70892B80937C0080917A008064F1
:100F400080937A0080917A0086FDFCCF80917800B2
:100F50009091790088838DE391E00E9432074AE006
:100F6000C701B6010E943F0783E491E00E94320767
:100F7000699170E090E080E04AE00E943F0786E4DB
:100F800091E00E943207FFEFCF1ADF0AEF0AFF0A53
:100F900084E0C816D104E104F10421F6DF91CF9179
:100FA0001F910F91FF90EF90DF90CF9008951F92C7
:100FB0000F920FB60F9211242F933F938F939F930D
:100FC000AF93BF938091540190915501A091560128
:100FD000B09157013091530123E0230F2D3758F57D
:100FE0000196A11DB11D209353018093540190934C
:100FF0005501A0935601B0935701809158019091EB
:101000005901A0915A01B0915B010196A11DB11D3A
:101010008093580190935901A0935A01B0935B01BA
:10102000BF91AF919F918F913F912F910F900FBEE4
:101030000F901F90189526E8230F0296A11DB11D51
:10104000D2CF1F920F920FB60F9211248F939F93BE
:101050008091E1009091E100937F9093E10083FF04
:101060000FC01092E90091E09093EB001092EC0019
:1010700092E39093ED001092690198E09093F00054
:1010800082FF22C093E09093E9009091F2009923AF
:1010900019F09AE39093E80090915201992341F05E
:1010A00090915201915090935201911101C05D981D
:1010B00090916801992341F090916801915090932B
:1010C0006801911101C0289884FF18C08091E20046
:1010D0008E7E81608093E2008091E1008F7E80931C
:1010E000E100809151018E7E8061809351019F913A
:1010F0008F910F900FBE0F901F90189580FFF7CF24
:101100008091E2008E7E80618093E2008091E10018
:101110008E7E8093E100809151018E7E8160E5CFCB
:101120001F920F920FB60F921124CF92DF92EF927F
:10113000FF920F931F932F933F934F935F936F9360
:101140007F938F939F93AF93BF93EF93FF93CF932F
:10115000DF93CDB7DEB76C97DEBFCDBF1092E9004D
:101160008091E80083FF25C068E0CE0145960E948B
:10117000B30282EF8093E8008D8987FF39C0909198
:10118000E80090FFFCCF982F907609F034C19E893B
:101190004F89588D2F89F88C911131C0803861F5B5
:1011A000809150018093F1001092F1008EEF8093B6
:1011B000E8006C960FB6F894DEBF0FBECDBFDF918E
:1011C000CF91FF91EF91BF91AF919F918F917F91BF
:1011D0006F915F914F913F912F911F910F91FF90D0
:1011E000EF90DF90CF900F900FBE0F901F9018954B
:1011F0009EEF9093E800C7CF1092F100D5CF9130C9
:1012000059F48111D3CF4130510581F680915001BD
:101210008D7F80935001CACF933049F48111C6CF9E
:101220004130510519F6809150018260F2CF95301E
:1012300041F48091E80080FFFCCF20682093E30018
:10124000B5CF963009F0A9C00B8D1C8D22E010920D
:10125000E90010924E0110924D01F2122EC0109230
:101260004C0110924B010E9482021F8299E09983E7
:10127000FA8291E09E8390EA98879AEF998720916D
:101280004D0130914E01275F3F4F3C832B838D836F
:101290001092E90010924E0110924D0110934C01F2
:1012A00000934B0149E050E0BE016F5F7F4F80E04B
:1012B0000E945C020E94820279CF10934C0100933D
:1012C0004B010E945101DC0112960D911C910115F8
:1012D000110509F451C1D801ED91FC910480F5810B
:1012E000E02DBE016B5E7F4FC8010995009709F0A4
:1012F0003EC1F80100851185EACFF3E0FF120EC070
:101300008F89882309F440C0823061F440E86DE0A1
:1013100080E191E00E942902811148CF81E280930F
:10132000EB0047CF813029F440E86BE084E091E0A6
:10133000F1CF833099F70E945101DC011296ED90B4
:10134000FC908E010F5F1F4F6801E114F10479F0EA
:10135000D701ED91FC910680F781E02DB801C7011E
:101360000995080F111DF701E084F184EECFD80133
:101370001C92F60101900020E9F73197BF016C192A
:101380007D0940E0C601C6CF6EEE70E0FB014491DE
:1013900050E080E80E945C0209CF973009F4BECF8C
:1013A000983021F481E08093F10000CF993009F06A
:1013B000FDCE837009F0B2CFEDE0F1E081E031E0E5
:1013C00096E32191222371F08093E9003093EB00A2
:1013D000DF0111972C912093EC009093ED008F5F2B
:1013E000873079F78EE78093EA001092EA008F89C0
:1013F00080936901DBCE8B8D9C8D1092E900109259
:101400004E0110924D0190934C0180934B01898DB8
:10141000811192C08E899D89913A49F4813209F0F7
:101420007DCF47E050E064E071E080E0B3CF9132DF
:1014300009F074CF833269F48F89988DB0E0A0E011
:101440008093000190930101A0930201B0930301E6
:10145000ADCE803269F48091E80082FFFCCF67E076
:1014600084E091E00E94B3028BEF8093E8009ECE6F
:10147000823209F09BCE8F8980930B01EEEFFFE75C
:10148000859194918B3F9C4D51F1E0E0F8E0809183
:10149000040190910501A0910601B0910701803BE4
:1014A0009440A105B105F1F480910B0180FD1AC0B3
:1014B000EE3F8AE0F80789F587E797E79183808315
:1014C0008091600080934F0188E19BE00FB6F89413
:1014D000A895809360000FBE9093600067CEEEEFFA
:1014E000FAE0D5CF808191818737974709F05ECEAA
:1014F000A8958091600088618093600080914F0181
:1015000080936000EE3F2AE0F20789F08091FE0AA6
:101510009091FF0A9183808349CE808191818737A2
:10152000980751F29093FF0A8093FE0AC5CF10925C
:10153000FF0A1092FE0A3ACE0E945101DC01129677
:101540000D911C910115110509F4E8CED801ED911A
:10155000FC910190F081E02DBE016B5E7F4FC801D0
:101560000995811123CEF80100851185EBCF18165E
:1015700019060CF41BCED2CEF1E0FF12BECE62EF04
:1015800070E004CFCF93DF93EAE6F1E0138212829A
:1015900088EE93E0A0E0B0E084839583A683B783D0
:1015A0008FE191E0918380838FEF9FEF9587848710
:1015B000EAEBF1E01082118212821382148215820A
:1015C00016821782ECE7F0E0808180648083EAE78E
:1015D000F0E0808187688083C3ECD1E081E391E013
:1015E000998388838AE08A830E94F70061E08A8178
:1015F000DF91CF910C946501CF93DF93CDB7DEB728
:1016000028970FB6F894DEBF0FBECDBF8FEF9FEFC8
:1016100090937701809376018E01075F1F4F0E94A0
:1016200083078091BA018D838091BB018E83809165
:10163000BC018F838091BD0188870E9483078091C0
:10164000BA0189838091BB018A838091BC018B831D
:101650008091BD018C83FE0135969E012F5F3F4F27
:101660004EEB51E08191D9019D919D01890F992700
:10167000991F95958795DA018D93AD010E171F0778
:1016800089F7CDCFA1E21A2EAA1BBB1BFD010DC00D
:10169000AA1FBB1FEE1FFF1FA217B307E407F50722
:1016A00020F0A21BB30BE40BF50B661F771F881FFE
:1016B000991F1A9469F760957095809590959B0194
:1016C000AC01BD01CF010895EE0FFF1F0590F4910D
:0816D000E02D0994F894FFCF0E
:1016D800FFFFFFFF00E100000000000000C1808163
:1016E8000000000700060005000400000000005884
:1016F80003C00279036E03BF037D039B0300000050
:10170800005106D903860483056404C8044461743F
:0A1718006120003A20000D0A0000D5
:00000001FF
