:100000000C94D3000C94FB000C94FB000C94FB00AC
:100010000C94FB000C94FB000C94FB000C94FB0074
:100020000C94FB000C94FB000C94F1070C946008FA
:100030000C94FB000C94FB000C94FB000C94FB0054
:100040000C94FB000C94FB000C94FB000C94FB0044
:100050000C94FB000C94FB000C94FB000C94A70781
:100060000C94FB000C94FB000C94FB000C94FB0024
:100070000C94FB000C94FB000C94FB000C94FB0014
:100080000C94FB000C94FB000C94FB000C94FB0004
:100090000C94FB000C94FB000C94FB000C94FB00F4
:1000A0000C94FB000C94FB000C94FB00080B00026A
:1000B0000202000009040000010202000005240001
:1000C0001001052401010104240206052406000193
:1000D0000705810310004009040100020A00000026
:1000E00007050202400000070583024000000403E8
:1000F000090412010002EF02014041233780000190
:100100000102030141726475696E6F204C4C43001B
:1001100041726475696E6F204D6963726F000000F3
:100120000000240027002A002D00300000000000FD
:10013000250028002B002E003100040404040403D1
:100140000405020202020403020202020606060677
:10015000060604040202020404040802011040809E
:10016000401020408040800802040180402010029E
:1001700001108010204040200000000200090F0004
:1001800000030401000C000000000000000000005B
:1001900000000000000000070605040100080A0B2B
:1001A0000C0D0900A80A11241FBECFEFDAE0DEBF54
:1001B000CDBF11E0A0E0B1E0E4E7FBE102C00590B3
:1001C0000D92AE33B107D9F721E0AEE3B1E001C043
:1001D0001D92AD3FB207E1F710E0C3EDD0E004C0DF
:1001E0002197FE010E94AB0DC23DD107C9F70E94C5
:1001F000F30A0C94B80D0C940000EEE9F1E0E491E0
:1002000090917B008E2F880F880F80729F7D892BA5
:1002100080937B00E770E064E0937C0080917A003B
:10022000806480937A0080917A0086FDFCCF809173
:100230007800909179000895FC0180915D018823F8
:1002400011F13FB7F89482E08093E9002091F20029
:10025000822F90E01816190614F481E090E08823AC
:1002600039F0289A44E640935C014091F1004083C4
:10027000222339F02091F200211103C02BE62093B4
:10028000E8003FBF08958FEF9FEF08952FB7F894D0
:1002900083E08093E9009091E800892F807295FFB8
:1002A00004C09091F20080E4891B2FBF08958091D3
:1002B000540181110DC082E08093500184E080934D
:1002C0005101109253011092520181E08093540128
:1002D00080E591E00895282F30E0F901E858FE4FBD
:1002E0009491F901E75AFE4F8491265C3E4FF90143
:1002F0002491222309F430C09923E9F091509F30D2
:10030000D0F4E92FF0E0E957FE4F0C94AB0DB501A6
:10031000B9019601AD01B1019B019B019B01BC019B
:10032000C201C601CA01D0019B01D4019091800095
:100330009F7790938000E22FF0E0EE0FFF1FE45DC7
:10034000FE4FA591B4919FB7F894EC91611132C022
:1003500080958E238C939FBF0895909180009F7D00
:10036000E8CF90918000977FE4CF94B59F7794BDBC
:10037000E2CF94B59F7DFBCF909190009F779093B3
:100380009000D9CF909190009F7DF9CF90919000EF
:10039000977FF5CF9091C0009F779093C000CBCF0F
:1003A0009091C0009F7DF9CF9091C200977F90936C
:1003B000C200C1CF8E2BCECFCF93DF9390E0FC0154
:1003C000E75AFE4F2491865C9E4FFC01849188235E
:1003D000D1F090E0880F991FFC01E25EFE4FA591DD
:1003E000B491FC01E45DFE4FC591D49161110EC042
:1003F0009FB7F8948C91E22FE0958E238C932881FF
:10040000E223E8839FBFDF91CF9108958FB7F894DF
:10041000EC91E22BEC938FBFF6CF3FB7F89480912D
:100420004C0190914D01A0914E01B0914F0126B524
:10043000A89B05C02F3F19F00196A11DB11D3FBF1C
:10044000BA2FA92F982F8827BC01CD01620F711DEB
:10045000811D911D42E0660F771F881F991F4A95E5
:10046000D1F708958F929F92AF92BF92CF92DF9271
:10047000EF92FF926B017C010E940D024B015C0127
:10048000C114D104E104F104B9F00E940D0268190D
:1004900079098A099B09683E73408105910580F3BB
:1004A00021E0C21AD108E108F10888EE880E83E045
:1004B000981EA11CB11CE4CFFF90EF90DF90CF906D
:1004C000BF90AF909F908F900895409141015091BF
:1004D000420120913F013091400142175307B4F48B
:1004E0009091E8009570E1F39091E80092FD19C0B9
:1004F0008093F100809141019091420101968F73A8
:100500009927892B19F48EEF8093E800809141019F
:10051000909142010196909342018093410181E0C4
:10052000089580E00895EF92FF920F931F93CF9369
:10053000DF93F82E192FE62E042F81E0860F880F07
:100540000E94650283E00E946502CF2DD12FEC0E40
:10055000FD2EF11CCE15DF05B9F007FF13C0FE011B
:1005600084910E946502182F80E00E946502812319
:1005700021968111EFCFDF91CF911F910F91FF90C5
:10058000EF9008958881EDCF81E0F5CFDF92EF9273
:10059000FF920F931F93CF93DF93D82E8A01EB0125
:1005A0007B01E40EF51ECE15DF0559F0D7FE12C013
:1005B000FE0184910E94650221968111F4CF0FEF14
:1005C0001FEFC801DF91CF911F910F91FF90EF9026
:1005D000DF9008958881EECF0F931F93CF93DF9321
:1005E0001F92CDB7DEB782E0898342E450E06CEA27
:1005F00070E080E80E94C6020E945701DC0112965A
:100600000D911C910115110589F0D801ED91FC9116
:100610000280F381E02DBE016F5F7F4FC801099515
:1006200097FD04C0F80100851185ECCF89810F90FA
:10063000DF91CF911F910F910895615030F020917B
:10064000F100FC0120830196F8CF289A84E680937C
:100650005C0108958F929F92AF92BF92CF92DF92EA
:10066000EF92FF920F931F93CF93DF936C017B0167
:100670008A0180910B01882309F45CC080915D019F
:10068000882309F457C08091450180FF05C08091FF
:10069000E00082608093E000E801B12C8AEFA82E90
:1006A00093E0892E2AE3922E209711F4BB20D9F1F2
:1006B0000E94460181110AC0AA94AA20D9F161E0E2
:1006C00070E080E090E00E943202EECF8C171D06B1
:1006D00011F00CF08C2F9FB7F8948092E9002091D4
:1006E000E80025FD02C09FBFDFCF282F30E0C21BEE
:1006F000D30BF701815020F041914093F100FACFE4
:10070000E20EF31EBB2021F09092E800B12CEBCF5B
:100710008091E80085FDE7CF9092E800BB24B39478
:10072000209709F3F3CF5D9A84E680934401101675
:1007300011063CF081E090E0F6019383828310E0A3
:1007400000E0C801DF91CF911F910F91FF90EF90D2
:10075000DF90CF90BF90AF909F908F900895CF93F0
:10076000DF931F92CDB7DEB76983DC01ED91FC9179
:100770000280F381E02D41E050E0BE016F5F7F4FCA
:1007800009950F90DF91CF91089583E08093E90060
:100790008091F200882319F08AE38093E80008959D
:1007A0000E94460190E00895CF93DF931F92CDB74A
:1007B000DEB7FC018485958597FD08C02FEF3FEFDC
:1007C000358724870F90DF91CF910895CE01019650
:1007D0000E941C01019719F4898190E0F3CF8FEFFB
:1007E0009FEFF0CF0F931F93CF93DF931F92CDB75F
:1007F000DEB78C01FC018485958597FF0BC0CE0187
:1008000001960E941C01019771F4898190E0F80122
:1008100095878487F801848595850F90DF91CF9126
:100820001F910F9108958FEF9FEFF1CFFC01848509
:10083000958597FD0BC09FB7F89482E08093E900FF
:100840008091F2009FBF90E0019608959FB7F894C1
:1008500082E08093E9008091F2009FBF90E00895CC
:10086000CF93CFB7F89480913E01811127C0EBE47C
:10087000F1E08491EAE6F1E09491E82FF0E0EE0FE8
:10088000FF1FE25EFE4FA591B491EC91E92321F4A4
:1008900061E081E10E946B0161E081E10E94DC0185
:1008A0008CB580618CBD8CB580648CBD61E08FE0BF
:1008B0000E94DC0161E080E10E94DC0180913E0148
:1008C0008F5F80933E01CFBFCF9108959FB7F8947B
:1008D00080913E01882319F0815080933E018091E0
:1008E0003E01811103C08CB58F7B8CBD9FBF0895E5
:1008F0008EBD00000DB407FEFDCF8EB508951F9389
:10090000CF93DF93EC0160E08A810E946B0182E06B
:100910000E94780481E30E9478041DE080E00E9438
:1009200078041150D9F761E08A810E946B0160E080
:100930008A810E946B0182E00E94780481E40E9417
:1009400078041DE080E00E9478041150D9F761E03E
:100950008A810E946B0160E08A810E946B0182E0C3
:100960000E94780481E50E9478041DE080E00E94E6
:1009700078041150D9F761E08A81DF91CF911F91FE
:100980000C946B011F93CF93DF93EC0160E08A819D
:100990000E946B0182E00E94780481E60E94780444
:1009A0001DE080E00E9478041150D9F761E08A814F
:1009B0000E946B0160E08A810E946B0182E00E94CC
:1009C000780481E70E9478041DE080E00E947804AA
:1009D0001150D9F761E08A81DF91CF911F910C947A
:1009E0006B01CF93DF93EC010E94C204CE01DF9133
:1009F000CF910C947F041F93CF93DF93EC0160E0C1
:100A00008A810E946B0180EA0E9478048FEF0E9425
:100A10007804182F61E08A810E946B01812FDF9199
:100A2000CF911F9108950E94FB0483700895FF9257
:100A30000F931F93CF93DF93EC01F62E042F122F09
:100A400060E08A810E946B0185E00E9478048F2D0E
:100A50000E947804802F0E947804812F0E947804DD
:100A600061E08A81DF91CF911F910F91FF900C94EB
:100A70006B010F931F93CF93DF93EC01062F142F7D
:100A800060E08A810E946B0182E00E947804802FDE
:100A90000E947804812F0E94780461E08A81DF91AE
:100AA000CF911F910F910C946B019F92AF92BF92C7
:100AB000CF92DF92EF92FF920F931F93CF93DF932A
:100AC0008C01EB010E94FB0482FF0AC084FF6EC010
:100AD000A4E8CA2EB4E4BB2E86FF06C080E099C00D
:100AE000E1E8CE2EF0E4BF2EE8848E2D82958F7043
:100AF000E984E29450EFE522E82A8B81D8804D2DDD
:100B000059816A81782F7F71282F207487FF53C005
:100B1000DB01CA0135E1B695A795979587953A957A
:100B2000D1F7A82EDB01CA014DE0B695A7959795A0
:100B300087954A95D1F7807E962F9370F92EF82AE3
:100B40006894F3F8952E222311F06894E6F860E09B
:100B5000F80182810E946B018B2D0E9478048A2DFE
:100B60000E9478048F2D0E947804892D0E947804B9
:100B70008D2D0E9478048E2D0E9478047E019701AD
:100B80002C1B3D0BFFEFEF1AFF0A8885982F9295DB
:100B90009F7089858295807F892B82171306F9F0D3
:100BA000F4F0F70183850E947804E9CF62E8C62E4D
:100BB00072E4B72E99CF83E0769567955795479560
:100BC0008A95D1F7A42EFD2CF294FF0C90EEF92219
:100BD000222311F06894F4F8D12C912CB8CF61E065
:100BE000F80182810E946B0160E0F80182810E941D
:100BF0006B018C2D0E94780461E0F80182810E94D3
:100C00006B018885982F92959F7089858295807F4A
:100C1000892BDF91CF911F910F91FF90EF90DF9083
:100C2000CF90BF90AF909F9008958F929F92AF9278
:100C3000BF92CF92DF92EF92FF920F931F93CF93C9
:100C4000DF93EC015B01FC013C9688E0DF011D9223
:100C50008A95E9F7CB010E94FB0480FD14C014E9DA
:100C600081FD12C08B818F7D8B83CE01DF91CF916F
:100C70001F910F91FF90EF90DF90CF90BF90AF90BA
:100C80009F908F90089510E960E0F50182810E94A5
:100C90006B01812F0E9478048FEF0E947804082F47
:100CA0008FEF0E947804E82E8FEF0E947804F82ED0
:100CB0008FEF0E947804182F8FEF0E947804282F5E
:100CC0002295207F98859F70922B9887282F2295B8
:100CD0002F709985907F922B99874E01C82ED12C29
:100CE000C4018C1B9D0B8C159D0554F48FEF0E9445
:100CF0007804D4011C968C93BFEF8B1A9B0AF0CF1B
:100D000061E0F50182810E946B016E2D70E09B0114
:100D1000A3E035952795AA95E1F78B8120FB87F90C
:100D20008B83282F207E87FF39C04E2D50E070E046
:100D300060E0802F90E0B0E0A0E035E1880F991FDF
:100D4000AA1FBB1F3A95D1F79F29812B6A017B010E
:100D5000EDE0CC0CDD1CEE1CFF1CEA95D1F7CC2499
:100D6000DD24FCE1EF22FF248C299D29AE29BF2937
:100D7000BA01552744274427552763707727842BCA
:100D8000952BA62BB72B88839983AA838B2F8F71E2
:100D9000282B2F7B2B838B81806266CF38E0039FCB
:100DA000C0011124092E000CAA0BBB0B4E2D42953D
:100DB00046954770842B88839983AA838B2F8F71E4
:100DC00094E0759567959A95E1F7282B60FB26F9D5
:100DD000E1CF8F929F92AF92BF92FF920F931F939A
:100DE000CF93DF93EC014A015B010E94300460E085
:100DF0008A810E946B0180EC0E94780461E08A8104
:100E00000E946B01CE010E94C204CE010E947F04A9
:100E100020E640E660E6CE010E94170520E640E6A7
:100E200060E7CE010E94170580E1881687E29806E8
:100E3000A104B10409F440C080E288168EE498064B
:100E4000A104B10409F45AC080E5881683EC980621
:100E5000A104B10409F457C080EA881686E8980610
:100E600081E0A806B10409F453C088E4881688EE2E
:100E7000980681E0A806B10409F44FC080E98816FD
:100E800080ED980683E0A806B10409F44BC080E227
:100E9000881681EA980687E0A806B10409F447C0DD
:100EA00080E4881682E498068FE0A806B10441F435
:100EB00012E800EDF12C04C015E008EB41E3F42E3C
:100EC0004F2D6AE2CE010E943905402F69E2CE0122
:100ED0000E943905412F68E2CE010E94390520E0C9
:100EE00040EE6FE0CE01DF91CF911F910F91FF9007
:100EF000BF90AF909F908F900C94170515E008EB72
:100F000038E1F32EDDCF15E008EB29E0F22ED8CF43
:100F100015E008EB94E0F92ED3CF15E008EB83E061
:100F2000F82ECECF15E008EBFF24F394C9CF15E0DF
:100F300008EBC0CFFC0101900020E9F73197AF0129
:100F4000481B590BBC018EE591E00C942A031F92BB
:100F50000F920FB60F9211242F933F938F939F936D
:100F6000AF93BF938091480190914901A0914A01AC
:100F7000B0914B013091470123E0230F2D3758F5F5
:100F80000196A11DB11D20934701809348019093C4
:100F90004901A0934A01B0934B0180914C0190917B
:100FA0004D01A0914E01B0914F010196A11DB11DBF
:100FB00080934C0190934D01A0934E01B0934F014B
:100FC000BF91AF919F918F913F912F910F900FBE45
:100FD0000F901F90189526E8230F0296A11DB11DB2
:100FE000D2CF1F920F920FB60F9211248F939F931F
:100FF0008091E1009091E100937F9093E10083FF65
:101000000FC01092E90091E09093EB001092EC0079
:1010100092E39093ED0010925D0198E09093F000C0
:1010200082FF22C093E09093E9009091F20099230F
:1010300019F09AE39093E80090914401992341F0CC
:1010400090914401915090934401911101C05D9899
:1010500090915C01992341F090915C0191509093A3
:101060005C01911101C0289884FF18C08091E200B2
:101070008E7E81608093E2008091E1008F7E80937C
:10108000E100809145018E7E8061809345019F91B2
:101090008F910F900FBE0F901F90189580FFF7CF84
:1010A0008091E2008E7E80618093E2008091E10079
:1010B0008E7E8093E100809145018E7E8160E5CF38
:1010C0001F920F920FB60F921124CF92DF92EF92E0
:1010D000FF920F931F932F933F934F935F936F93C1
:1010E0007F938F939F93AF93BF93EF93FF93CF9390
:1010F000DF93CDB7DEB76C97DEBFCDBF1092E900AE
:101100008091E80083FF25C068E0CE0145960E94EB
:101110001D0382EF8093E8008D8987FF39C090918D
:10112000E80090FFFCCF982F907609F034C19E899B
:101130004F89588D2F89F88C911131C0803861F515
:10114000809146018093F1001092F1008EEF809320
:10115000E8006C960FB6F894DEBF0FBECDBFDF91EE
:10116000CF91FF91EF91BF91AF919F918F917F911F
:101170006F915F914F913F912F911F910F91FF9030
:10118000EF90DF90CF900F900FBE0F901F901895AB
:101190009EEF9093E800C7CF1092F100D5CF913029
:1011A00059F48111D3CF4130510581F68091460128
:1011B0008D7F80934601CACF933049F48111C6CF09
:1011C0004130510519F6809146018260F2CF953089
:1011D00041F48091E80080FFFCCF20682093E30079
:1011E000B5CF963009F0A9C00B8D1C8D22E010926E
:1011F000E9001092420110924101F2122EC01092A9
:10120000400110923F010E94EC021F8299E09983F5
:10121000FA8291E09E8390EA98879AEF99872091CD
:10122000410130914201275F3F4F3C832B838D83E7
:101230001092E90010924201109241011093400176
:1012400000933F0149E050E0BE016F5F7F4F80E0B7
:101250000E94C6020E94EC0279CF109340010093D5
:101260003F010E945701DC0112960D911C9101155E
:10127000110509F451C1D801ED91FC910480F5816B
:10128000E02DBE016B5E7F4FC8010995009709F004
:101290003EC1F80100851185EACFF3E0FF120EC0D0
:1012A0008F89882309F440C0823061F440E86DE002
:1012B00080E191E00E949302811148CF81E2809306
:1012C000EB0047CF813029F440E86BE084E091E007
:1012D000F1CF833099F70E945701DC011296ED900F
:1012E000FC908E010F5F1F4F6801E114F10479F04B
:1012F000D701ED91FC910680F781E02DB801C7017F
:101300000995080F111DF701E084F184EECFD80193
:101310001C92F60101900020E9F73197BF016C198A
:101320007D0940E0C601C6CF6EEE70E0FB0144913E
:1013300050E080E80E94C60209CF973009F4BECF82
:10134000983021F481E08093F10000CF993009F0CA
:10135000FDCE837009F0B2CFEDE0F1E081E031E045
:1013600096E32191222371F08093E9003093EB0002
:10137000DF0111972C912093EC009093ED008F5F8B
:10138000873079F78EE78093EA001092EA008F8920
:1013900080935D01DBCE8B8D9C8D1092E9001092C5
:1013A0004201109241019093400180933F01898D49
:1013B000811192C08E899D89913A49F4813209F058
:1013C0007DCF47E050E064E071E080E0B3CF913240
:1013D00009F074CF833269F48F89988DB0E0A0E072
:1013E0008093000190930101A0930201B093030147
:1013F000ADCE803269F48091E80082FFFCCF67E0D7
:1014000084E091E00E941D038BEF8093E8009ECE64
:10141000823209F09BCE8F8980930B01EEEFFFE7BC
:10142000859194918B3F9C4D51F1E0E0F8E08091E3
:10143000040190910501A0910601B0910701803B44
:101440009440A105B105F1F480910B0180FD1AC013
:10145000EE3F8AE0F80789F587E797E79183808375
:10146000809160008093430188E19BE00FB6F8947F
:10147000A895809360000FBE9093600067CEEEEF5A
:10148000FAE0D5CF808191818737974709F05ECE0A
:10149000A8958091600088618093600080914301ED
:1014A00080936000EE3F2AE0F20789F08091FE0A07
:1014B0009091FF0A9183808349CE80819181873703
:1014C000980751F29093FF0A8093FE0AC5CF1092BD
:1014D000FF0A1092FE0A3ACE0E945701DC011296D2
:1014E0000D911C910115110509F4E8CED801ED917B
:1014F000FC910190F081E02DBE016B5E7F4FC80131
:101500000995811123CEF80100851185EBCF1816BE
:1015100019060CF41BCED2CEF1E0FF12BECE62EF64
:1015200070E004CFCF93DF93FC0188E0DF01C82F88
:101530001D92CA95E9F710861186DF011A96ED0112
:1015400019928A95E9F7128A138ADF91CF9108954B
:10155000CF93DF93EEE5F1E01382128288EE93E001
:10156000A0E0B0E084839583A683B78387E191E010
:10157000918380838FEF9FEF958784878EEB91E037
:101580000E94920A84E190E0A0E0B0E08093BA016A
:101590009093BB01A093BC01B093BD018AE090E0A1
:1015A000A0E0B0E08093B2019093B301A093B401A6
:1015B000B093B50182ED91E00E94920A86EE91E02F
:1015C0000E94920ACAEFD1E089E291E09983888370
:1015D0008AE08A8361E00E94DC0161E08A81DF9118
:1015E000CF910C946B01CF93DF93CDB7DEB7E79724
:1015F0000FB6F894DEBF0FBECDBF789484B582607D
:1016000084BD84B5816084BD85B5826085BD85B5A6
:10161000816085BD80916E00816080936E00109224
:10162000810080918100826080938100809181009F
:101630008160809381008091800081608093800030
:1016400080919100826080939100809191008160EF
:1016500080939100809190008160809390008091B0
:10166000C10084608093C1008091C100826080933A
:10167000C1008091C10081608093C1008091C3004E
:1016800081608093C3008091C00082608093C0001D
:101690008091C20081608093C20080917A00846052
:1016A00080937A0080917A00826080937A008091A2
:1016B0007A00816080937A0080917A0080688093BC
:1016C0007A0010925D0110924601109245018091BE
:1016D000D70081608093D70080EA8093D80089B5D5
:1016E000806189BD89B5826089BD09B400FEFDCFE6
:1016F00061E070E080E090E00E9432028091D800CA
:101700008F7C80618093D8008091E000807F8093FF
:10171000E0008091E1008E7E8093E1008DE0809377
:10172000E200559A209A5D9828988FEF9FEF90934A
:101730006B0180936A010E94300440E251EA67E045
:1017400070E08AEF91E00E94E90660E089E10E9482
:10175000DC0161E082E10E94DC0161E083E10E9442
:10176000DC0161E084E10E94DC0161E085E10E942E
:10177000DC0144244A9483E0582E612C712C9AE0B9
:10178000C92ED12CE12CF12CCE018E969FAB8EABC5
:101790001E019DE0290E311C8FB7F894409148013D
:1017A0005091490160914A0170914B018FBF809126
:1017B000B2019091B301A091B401B091B50100972D
:1017C000A105B10509F023C14093AE015093AF01CB
:1017D0006093B0017093B10160E082E10E946B01FF
:1017E00060E083E10E946B0160E084E10E946B0194
:1017F00060E085E10E946B0168E270E080E090E0CB
:101800000E9432020E94FD002FEF30E0DC010E94B6
:10181000B10DA30192010E945B0D2093BE0185E3EF
:1018200091E00E949A070E94FD004C01990FAA08BE
:10183000BB08B7FE0BC16DE28EE591E00E94AF03DD
:1018400022273327A901281939094A095B0919A256
:101850008E010F5D1F4FCA01B901A70196010E94B9
:101860007A0D605DD8016E938D012115310541051A
:10187000510589F70115110519F0C8010E949A0751
:101880008AE391E00E949A0764E170E080E090E0D2
:101890000E9432025091BE014091C8012EEB31E00E
:1018A000D901752F8D91871708F4782FF1E0A43CAA
:1018B000BF07C1F788EC91E05C01642FF50111913D
:1018C0005F01161708F4612FFEECAF16F1E0BF06BA
:1018D000A9F77093C6016093D001F90161919F014E
:1018E000561708F4562FA217B307B9F7DC012D914C
:1018F000CD01421708F4422FA816B906B9F7509344
:10190000C7014093D1018FB7F8944091480150919D
:10191000490160914A0170914B018FBF8091BA01DA
:101920009091BB01A091BC01B091BD010097A105B0
:10193000B10509F0A1C04093B6015093B70160937F
:10194000B8017093B9018091C6018093CE01909146
:10195000D1019093CF018093C4018091C7018093FE
:10196000C501EEA9FFA918E011921A95E9F7D10176
:10197000E8E01D92EA95E9F7FAE5FAA31BA21CA29A
:101980009DA11BE519831A821B828C81907E9F7713
:101990009DA3807E8F778C838AA58F7080688AA7AD
:1019A0008BA5807F8BA789858F70806889878A85C2
:1019B000807F8A87EEEBF1E0CE018E96A101219126
:1019C000DC012D93CD012185DA012D93AD01B1E02C
:1019D000E63CFB07A1F7BE016E5D7F4F8AEF91E009
:1019E0000E9455056AE070E080E090E00E943202BB
:1019F000BE016F5F7F4F8AEF91E00E945505E0E0E6
:101A0000F0E0EF2B09F4C8CE0E940000C5CE009193
:101A1000AE011091AF012091B0013091B101401B96
:101A2000510B620B730B481759076A077B0708F4C1
:101A30006ACF800F911FA21FB31F8093AE019093B6
:101A4000AF01A093B001B093B101C6CEA50194013E
:101A500019A28E010F5D1F4FCA01B901A70196019E
:101A60000E947A0D605DF80162938F0121153105A6
:101A70004105510589F7FECE0091B6011091B701DD
:101A80002091B8013091B901401B510B620B730BCF
:101A9000481759076A077B0708F4B1CF800F911FD9
:101AA000A21FB31F8093B6019093B701A093B80112
:101AB000B093B90148CF052E97FB1EF400940E9405
:101AC000720D57FD07D00E947A0D07FC03D04EF42B
:101AD0000C94720D50954095309521953F4F4F4F86
:101AE0005F4F089590958095709561957F4F8F4FCA
:101AF0009F4F0895A1E21A2EAA1BBB1BFD010DC02A
:101B0000AA1FBB1FEE1FFF1FA217B307E407F507AD
:101B100020F0A21BB30BE40BF50B661F771F881F89
:101B2000991F1A9469F760957095809590959B011F
:101B3000AC01BD01CF010895A29FB001B39FC001C8
:101B4000A39F700D811D1124911DB29F700D811DE9
:101B50001124911D0895EE0FFF1F0590F491E02DC3
:101B600009940E949C0DB7FF0895821B930B089562
:041B7000F894FFCF17
:101B7400FFFFFFFF00E100000000000000C18081C2
:101B840000000000000000AF032A03D003C50316C1
:101B940004D403F20300000000E9066604130515EB
:0E1BA40006F10455053120203A000D0A00001C
:00000001FF
