:100000000C94D3000C94FB000C94FB000C94FB00AC
:100010000C94FB000C94FB000C94FB000C94FB0074
:100020000C94FB000C94FB000C9486080C94F508CF
:100030000C94FB000C94FB000C94FB000C94FB0054
:100040000C94FB000C94FB000C94FB000C94FB0044
:100050000C94FB000C94FB000C94FB000C943C08EB
:100060000C94FB000C94FB000C94FB000C94FB0024
:100070000C94FB000C94FB000C94FB000C94FB0014
:100080000C94FB000C94FB000C94FB000C94FB0004
:100090000C94FB000C94FB000C94FB000C94FB00F4
:1000A0000C94FB000C94FB000C94FB00080B00026A
:1000B0000202000009040000010202000005240001
:1000C0001001052401010104240206052406000193
:1000D0000705810310004009040100020A00000026
:1000E00007050202400000070583024000000403E8
:1000F000090412010002EF02014041233780000190
:100100000102030141726475696E6F204C4C43001B
:1001100041726475696E6F204D6963726F000000F3
:100120000000240027002A002D00300000000000FD
:10013000250028002B002E003100040404040403D1
:100140000405020202020403020202020606060677
:10015000060604040202020404040802011040809E
:10016000401020408040800802040180402010029E
:1001700001108010204040200000000200090F0004
:1001800000030401000C000000000000000000005B
:1001900000000000000000070605040100080A0B2B
:1001A0000C0D09003D0B11241FBECFEFDAE0DEBFBE
:1001B000CDBF11E0A0E0B1E0E8E2F2E202C00590BC
:1001C0000D92A03DB107D9F722E0A0EDB1E001C04A
:1001D0001D92AF38B207E1F710E0C3EDD0E004C0E4
:1001E0002197FE010E940511C23DD107C9F70E9467
:1001F000880B0C9412110C940000EEE9F1E0E491EC
:1002000090917B008E2F880F880F80729F7D892BA5
:1002100080937B00E770E064E0937C0080917A003B
:10022000806480937A0080917A0086FDFCCF809173
:100230007800909179000895FC018091EF01882366
:1002400011F13FB7F89482E08093E9002091F20029
:10025000822F90E01816190614F481E090E08823AC
:1002600039F0289A44E64093EE014091F100408332
:10027000222339F02091F200211103C02BE62093B4
:10028000E8003FBF08958FEF9FEF08952FB7F894D0
:1002900083E08093E9009091E800892F807295FFB8
:1002A00004C09091F20080E4891B2FBF08958091D3
:1002B000E60181110DC082E08093E20184E0809329
:1002C000E3011092E5011092E40181E08093E601E0
:1002D00082EE91E00895282F30E0F901E858FE4FB2
:1002E0009491F901E75AFE4F8491265C3E4FF90143
:1002F0002491222309F430C09923E9F091509F30D2
:10030000D0F4E92FF0E0E957FE4F0C940511B50148
:10031000B9019601AD01B1019B019B019B01BC019B
:10032000C201C601CA01D0019B01D4019091800095
:100330009F7790938000E22FF0E0EE0FFF1FE45DC7
:10034000FE4FA591B4919FB7F894EC91611132C022
:1003500080958E238C939FBF0895909180009F7D00
:10036000E8CF90918000977FE4CF94B59F7794BDBC
:10037000E2CF94B59F7DFBCF909190009F779093B3
:100380009000D9CF909190009F7DF9CF90919000EF
:10039000977FF5CF9091C0009F779093C000CBCF0F
:1003A0009091C0009F7DF9CF9091C200977F90936C
:1003B000C200C1CF8E2BCECFCF93DF9390E0FC0154
:1003C000E75AFE4F2491865C9E4FFC01849188235E
:1003D000D1F090E0880F991FFC01E25EFE4FA591DD
:1003E000B491FC01E45DFE4FC591D49161110EC042
:1003F0009FB7F8948C91E22FE0958E238C932881FF
:10040000E223E8839FBFDF91CF9108958FB7F894DF
:10041000EC91E22BEC938FBFF6CF3FB7F89480912D
:10042000DE019091DF01A091E001B091E10126B5DC
:10043000A89B05C02F3F19F00196A11DB11D3FBF1C
:10044000BA2FA92F982F8827BC01CD01620F711DEB
:10045000811D911D42E0660F771F881F991F4A95E5
:10046000D1F708958F929F92AF92BF92CF92DF9271
:10047000EF92FF926B017C010E940D024B015C0127
:10048000C114D104E104F104B9F00E940D0268190D
:1004900079098A099B09683E73408105910580F3BB
:1004A00021E0C21AD108E108F10888EE880E83E045
:1004B000981EA11CB11CE4CFFF90EF90DF90CF906D
:1004C000BF90AF909F908F9008954091D30150912D
:1004D000D4012091D1013091D20142175307B4F4D5
:1004E0009091E8009570E1F39091E80092FD19C0B9
:1004F0008093F1008091D3019091D40101968F7384
:100500009927892B19F48EEF8093E8008091D3010D
:100510009091D40101969093D4018093D30181E00E
:10052000089580E00895EF92FF920F931F93CF9369
:10053000DF93F82E192FE62E042F81E0860F880F07
:100540000E94650283E00E946502CF2DD12FEC0E40
:10055000FD2EF11CCE15DF05B9F007FF13C0FE011B
:1005600084910E946502182F80E00E946502812319
:1005700021968111EFCFDF91CF911F910F91FF90C5
:10058000EF9008958881EDCF81E0F5CFDF92EF9273
:10059000FF920F931F93CF93DF93D82E8A01EB0125
:1005A0007B01E40EF51ECE15DF0559F0D7FE12C013
:1005B000FE0184910E94650221968111F4CF0FEF14
:1005C0001FEFC801DF91CF911F910F91FF90EF9026
:1005D000DF9008958881EECF0F931F93CF93DF9321
:1005E0001F92CDB7DEB782E0898342E450E06CEA27
:1005F00070E080E80E94C6020E945701DC0112965A
:100600000D911C910115110589F0D801ED91FC9116
:100610000280F381E02DBE016F5F7F4FC801099515
:1006200097FD04C0F80100851185ECCF89810F90FA
:10063000DF91CF911F910F910895615030F020917B
:10064000F100FC0120830196F8CF289A84E680937C
:10065000EE0108958F929F92AF92BF92CF92DF9258
:10066000EF92FF920F931F93CF93DF936C017B0167
:100670008A0180910B01882309F45CC08091EF010D
:10068000882309F457C08091D70180FF05C080916D
:10069000E00082608093E000E801B12C8AEFA82E90
:1006A00093E0892E2AE3922E209711F4BB20D9F1F2
:1006B0000E94460181110AC0AA94AA20D9F161E0E2
:1006C00070E080E090E00E943202EECF8C171D06B1
:1006D00011F00CF08C2F9FB7F8948092E9002091D4
:1006E000E80025FD02C09FBFDFCF282F30E0C21BEE
:1006F000D30BF701815020F041914093F100FACFE4
:10070000E20EF31EBB2021F09092E800B12CEBCF5B
:100710008091E80085FDE7CF9092E800BB24B39478
:10072000209709F3F3CF5D9A84E68093D6011016E3
:1007300011063CF081E090E0F6019383828310E0A3
:1007400000E0C801DF91CF911F910F91FF90EF90D2
:10075000DF90CF90BF90AF909F908F900895CF93F0
:10076000DF931F92CDB7DEB76983DC01ED91FC9179
:100770000280F381E02D41E050E0BE016F5F7F4FCA
:1007800009950F90DF91CF91089583E08093E90060
:100790008091F200882319F08AE38093E80008959D
:1007A0000E94460190E00895CF93DF931F92CDB74A
:1007B000DEB7FC018485958597FD08C02FEF3FEFDC
:1007C000358724870F90DF91CF910895CE01019650
:1007D0000E941C01019719F4898190E0F3CF8FEFFB
:1007E0009FEFF0CF0F931F93CF93DF931F92CDB75F
:1007F000DEB78C01FC018485958597FF0BC0CE0187
:1008000001960E941C01019771F4898190E0F80122
:1008100095878487F801848595850F90DF91CF9126
:100820001F910F9108958FEF9FEFF1CFFC01848509
:10083000958597FD0BC09FB7F89482E08093E900FF
:100840008091F2009FBF90E0019608959FB7F894C1
:1008500082E08093E9008091F2009FBF90E00895CC
:10086000CF93CFB7F8948091D001811127C0EBE4EA
:10087000F1E08491EAE6F1E09491E82FF0E0EE0FE8
:10088000FF1FE25EFE4FA591B491EC91E92321F4A4
:1008900061E081E10E946B0161E081E10E94DC0185
:1008A0008CB580618CBD8CB580648CBD61E08FE0BF
:1008B0000E94DC0161E080E10E94DC018091D001B6
:1008C0008F5F8093D001CFBFCF9108959FB7F894E9
:1008D0008091D001882319F081508093D0018091BC
:1008E000D001811103C08CB58F7B8CBD9FBF089553
:1008F0008EBD00000DB407FEFDCF8EB508951F9389
:10090000CF93DF93EC0160E08A810E946B0182E06B
:100910000E94780481E30E9478041DE080E00E9438
:1009200078041150D9F761E08A810E946B0160E080
:100930008A810E946B0182E00E94780481E40E9417
:1009400078041DE080E00E9478041150D9F761E03E
:100950008A810E946B0160E08A810E946B0182E0C3
:100960000E94780481E50E9478041DE080E00E94E6
:1009700078041150D9F761E08A81DF91CF911F91FE
:100980000C946B011F93CF93DF93EC0160E08A819D
:100990000E946B0182E00E94780481E60E94780444
:1009A0001DE080E00E9478041150D9F761E08A814F
:1009B0000E946B0160E08A810E946B0182E00E94CC
:1009C000780481E70E9478041DE080E00E947804AA
:1009D0001150D9F761E08A81DF91CF911F910C947A
:1009E0006B01CF93DF93EC010E94C204CE01DF9133
:1009F000CF910C947F041F93CF93DF93EC0160E0C1
:100A00008A810E946B0180EA0E9478048FEF0E9425
:100A10007804182F61E08A810E946B01812FDF9199
:100A2000CF911F9108950E94FB0483700895FF9257
:100A30000F931F93CF93DF93EC01F62E042F122F09
:100A400060E08A810E946B0185E00E9478048F2D0E
:100A50000E947804802F0E947804812F0E947804DD
:100A600061E08A81DF91CF911F910F91FF900C94EB
:100A70006B010F931F93CF93DF93EC01062F142F7D
:100A800060E08A810E946B0182E00E947804802FDE
:100A90000E947804812F0E94780461E08A81DF91AE
:100AA000CF911F910F910C946B019F92AF92BF92C7
:100AB000CF92DF92EF92FF920F931F93CF93DF932A
:100AC0008C01EB010E94FB0482FF0AC084FF6EC010
:100AD000A4E8CA2EB4E4BB2E86FF06C080E099C00D
:100AE000E1E8CE2EF0E4BF2EE8848E2D82958F7043
:100AF000E984E29450EFE522E82A8B81D8804D2DDD
:100B000059816A81782F7F71282F207487FF53C005
:100B1000DB01CA0135E1B695A795979587953A957A
:100B2000D1F7A82EDB01CA014DE0B695A7959795A0
:100B300087954A95D1F7807E962F9370F92EF82AE3
:100B40006894F3F8952E222311F06894E6F860E09B
:100B5000F80182810E946B018B2D0E9478048A2DFE
:100B60000E9478048F2D0E947804892D0E947804B9
:100B70008D2D0E9478048E2D0E9478047E019701AD
:100B80002C1B3D0BFFEFEF1AFF0A8885982F9295DB
:100B90009F7089858295807F892B82171306F9F0D3
:100BA000F4F0F70183850E947804E9CF62E8C62E4D
:100BB00072E4B72E99CF83E0769567955795479560
:100BC0008A95D1F7A42EFD2CF294FF0C90EEF92219
:100BD000222311F06894F4F8D12C912CB8CF61E065
:100BE000F80182810E946B0160E0F80182810E941D
:100BF0006B018C2D0E94780461E0F80182810E94D3
:100C00006B018885982F92959F7089858295807F4A
:100C1000892BDF91CF911F910F91FF90EF90DF9083
:100C2000CF90BF90AF909F9008958F929F92AF9278
:100C3000BF92CF92DF92EF92FF920F931F93CF93C9
:100C4000DF93EC015B01FC013C9688E0DF011D9223
:100C50008A95E9F7CB010E94FB0480FD14C014E9DA
:100C600081FD12C08B818F7D8B83CE01DF91CF916F
:100C70001F910F91FF90EF90DF90CF90BF90AF90BA
:100C80009F908F90089510E960E0F50182810E94A5
:100C90006B01812F0E9478048FEF0E947804082F47
:100CA0008FEF0E947804E82E8FEF0E947804F82ED0
:100CB0008FEF0E947804182F8FEF0E947804282F5E
:100CC0002295207F98859F70922B9887282F2295B8
:100CD0002F709985907F922B99874E01C82ED12C29
:100CE000C4018C1B9D0B8C159D0554F48FEF0E9445
:100CF0007804D4011C968C93BFEF8B1A9B0AF0CF1B
:100D000061E0F50182810E946B016E2D70E09B0114
:100D1000A3E035952795AA95E1F78B8120FB87F90C
:100D20008B83282F207E87FF39C04E2D50E070E046
:100D300060E0802F90E0B0E0A0E035E1880F991FDF
:100D4000AA1FBB1F3A95D1F79F29812B6A017B010E
:100D5000EDE0CC0CDD1CEE1CFF1CEA95D1F7CC2499
:100D6000DD24FCE1EF22FF248C299D29AE29BF2937
:100D7000BA01552744274427552763707727842BCA
:100D8000952BA62BB72B88839983AA838B2F8F71E2
:100D9000282B2F7B2B838B81806266CF38E0039FCB
:100DA000C0011124092E000CAA0BBB0B4E2D42953D
:100DB00046954770842B88839983AA838B2F8F71E4
:100DC00094E0759567959A95E1F7282B60FB26F9D5
:100DD000E1CF8F929F92AF92BF92FF920F931F939A
:100DE000CF93DF93EC014A015B010E94300460E085
:100DF0008A810E946B0180EC0E94780461E08A8104
:100E00000E946B01CE010E94C204CE010E947F04A9
:100E100020E640E660E6CE010E94170520E640E6A7
:100E200060E7CE010E94170580E1881687E29806E8
:100E3000A104B10409F440C080E288168EE498064B
:100E4000A104B10409F45AC080E5881683EC980621
:100E5000A104B10409F457C080EA881686E8980610
:100E600081E0A806B10409F453C088E4881688EE2E
:100E7000980681E0A806B10409F44FC080E98816FD
:100E800080ED980683E0A806B10409F44BC080E227
:100E9000881681EA980687E0A806B10409F447C0DD
:100EA00080E4881682E498068FE0A806B10441F435
:100EB00012E800EDF12C04C015E008EB41E3F42E3C
:100EC0004F2D6AE2CE010E943905402F69E2CE0122
:100ED0000E943905412F68E2CE010E94390520E0C9
:100EE00040EE6FE0CE01DF91CF911F910F91FF9007
:100EF000BF90AF909F908F900C94170515E008EB72
:100F000038E1F32EDDCF15E008EB29E0F22ED8CF43
:100F100015E008EB94E0F92ED3CF15E008EB83E061
:100F2000F82ECECF15E008EBFF24F394C9CF15E0DF
:100F300008EBC0CFFC0101900020E9F73197AF0129
:100F4000481B590BBC0180EF91E00C942A038F924F
:100F50009F92AF92BF920F931F93CF93DF93CDB722
:100F6000DEB7A1970FB6F894DEBF0FBECDBF19A2B2
:100F7000423008F44AE08E010F5D1F4F842E912C01
:100F8000B12CA12CA50194010E94D410E62FB90127
:100F9000CA01EA30F4F4E05DD801EE938D01232B11
:100FA000242B252B79F790E080E0109719F0CD01E4
:100FB0000E949A07A1960FB6F894DEBF0FBECDBF70
:100FC000DF91CF911F910F91BF90AF909F908F9025
:100FD0000895E95CE1CF0C949A07CF93DF930E94C8
:100FE0009A07EC0185E391E00E949A078C0F9D1F00
:100FF000DF91CF910895CF93DF93682F70E090E059
:1010000080E04AE00E94A707EC0185E391E00E949E
:101010009A078C0F9D1FDF91CF910895CF92DF9299
:10102000EF92FF92CF93DF936B017C01F7FE1FC01D
:101030006DE280EF91E00E94AF03EC016627772715
:10104000CB016C197D098E099F094AE00E94A70710
:10105000C80FD91F85E391E00E949A078C0F9D1F4E
:10106000DF91CF91FF90EF90DF90CF9008954AE00D
:101070000E94A707EC01EECF1F920F920FB60F92BE
:1010800011242F933F938F939F93AF93BF9380919E
:10109000DA019091DB01A091DC01B091DD0130918A
:1010A000D90123E0230F2D3758F50196A11DB11D5D
:1010B0002093D9018093DA019093DB01A093DC01A6
:1010C000B093DD018091DE019091DF01A091E001FC
:1010D000B091E1010196A11DB11D8093DE019093B5
:1010E000DF01A093E001B093E101BF91AF919F9127
:1010F0008F913F912F910F900FBE0F901F901895D9
:1011000026E8230F0296A11DB11DD2CF1F920F9288
:101110000FB60F9211248F939F938091E1009091CD
:10112000E100937F9093E10083FF0FC01092E900EC
:1011300091E09093EB001092EC0092E39093ED001D
:101140001092EF0198E09093F00082FF22C093E0AC
:101150009093E9009091F200992319F09AE390930B
:10116000E8009091D601992341F09091D6019150D9
:101170009093D601911101C05D989091EE01992351
:1011800041F09091EE0191509093EE01911101C0C8
:10119000289884FF18C08091E2008E7E8160809341
:1011A000E2008091E1008F7E8093E1008091D70181
:1011B0008E7E80618093D7019F918F910F900FBE9B
:1011C0000F901F90189580FFF7CF8091E2008E7EE0
:1011D00080618093E2008091E1008E7E8093E10047
:1011E0008091D7018E7E8160E5CF1F920F920FB65E
:1011F0000F921124CF92DF92EF92FF920F931F93E1
:101200002F933F934F935F936F937F938F939F930E
:10121000AF93BF93EF93FF93CF93DF93CDB7DEB739
:101220006C97DEBFCDBF1092E9008091E80083FF8C
:1012300025C068E0CE0145960E941D0382EF809391
:10124000E8008D8987FF39C09091E80090FFFCCFBE
:10125000982F907609F034C19E894F89588D2F8937
:10126000F88C911131C0803861F58091D80180935C
:10127000F1001092F1008EEF8093E8006C960FB6AB
:10128000F894DEBF0FBECDBFDF91CF91FF91EF91FC
:10129000BF91AF919F918F917F916F915F914F918E
:1012A0003F912F911F910F91FF90EF90DF90CF9082
:1012B0000F900FBE0F901F9018959EEF9093E8002F
:1012C000C7CF1092F100D5CF913059F48111D3CF0F
:1012D0004130510581F68091D8018D7F8093D801EE
:1012E000CACF933049F48111C6CF4130510519F668
:1012F0008091D8018260F2CF953041F48091E8006E
:1013000080FFFCCF20682093E300B5CF963009F032
:10131000A9C00B8D1C8D22E01092E9001092D4011F
:101320001092D301F2122EC01092D2011092D1016C
:101330000E94EC021F8299E09983FA8291E09E83D9
:1013400090EA98879AEF99872091D3013091D40140
:10135000275F3F4F3C832B838D831092E9001092CF
:10136000D4011092D3011093D2010093D10149E02E
:1013700050E0BE016F5F7F4F80E00E94C6020E9476
:10138000EC0279CF1093D2010093D1010E94570152
:10139000DC0112960D911C910115110509F451C142
:1013A000D801ED91FC910480F581E02DBE016B5ECA
:1013B0007F4FC8010995009709F03EC1F8010085EB
:1013C0001185EACFF3E0FF120EC08F89882309F45C
:1013D00040C0823061F440E86DE080E191E00E941D
:1013E0009302811148CF81E28093EB0047CF813097
:1013F00029F440E86BE084E091E0F1CF833099F785
:101400000E945701DC011296ED90FC908E010F5F57
:101410001F4F6801E114F10479F0D701ED91FC91BF
:101420000680F781E02DB801C7010995080F111D4D
:10143000F701E084F184EECFD8011C92F60101900F
:101440000020E9F73197BF016C197D0940E0C60122
:10145000C6CF6EEE70E0FB01449150E080E80E9440
:10146000C60209CF973009F4BECF983021F481E04D
:101470008093F10000CF993009F0FDCE837009F020
:10148000B2CFEDE0F1E081E031E096E3219122235B
:1014900071F08093E9003093EB00DF0111972C91FC
:1014A0002093EC009093ED008F5F873079F78EE703
:1014B0008093EA001092EA008F898093EF01DBCEDF
:1014C0008B8D9C8D1092E9001092D4011092D30163
:1014D0009093D2018093D101898D811192C08E8920
:1014E0009D89913A49F4813209F07DCF47E050E07F
:1014F00064E071E080E0B3CF913209F074CF8332C1
:1015000069F48F89988DB0E0A0E0809300019093FA
:101510000101A0930201B0930301ADCE803269F4C2
:101520008091E80082FFFCCF67E084E091E00E94B8
:101530001D038BEF8093E8009ECE823209F09BCE94
:101540008F8980930B01EEEFFFE7859194918B3F9C
:101550009C4D51F1E0E0F8E080910401909105018B
:10156000A0910601B0910701803B9440A105B1050F
:10157000F1F480910B0180FD1AC0EE3F8AE0F8077C
:1015800089F587E797E79183808380916000809356
:10159000D50188E19BE00FB6F894A8958093600090
:1015A0000FBE9093600067CEEEEFFAE0D5CF80815A
:1015B00091818737974709F05ECEA89580916000AA
:1015C0008861809360008091D50180936000EE3F38
:1015D0002AE0F20789F08091FE0A9091FF0A918338
:1015E000808349CE808191818737980751F290930B
:1015F000FF0A8093FE0AC5CF1092FF0A1092FE0ADE
:101600003ACE0E945701DC0112960D911C910115F2
:10161000110509F4E8CED801ED91FC910190F0811B
:10162000E02DBE016B5E7F4FC8010995811123CE6D
:10163000F80100851185EBCF181619060CF41BCEA6
:10164000D2CEF1E0FF12BECE62EF70E004CFCF93B6
:10165000DF93FC0188E0DF01C82F1D92CA95E9F7EE
:1016600010861186DF011A96ED0119928A95E9F725
:10167000128A138ADF91CF910895CF93DF93E0EF21
:10168000F1E01382128288EE93E0A0E0B0E0848360
:101690009583A683B78387E191E0918380838FEF61
:1016A0009FEF9587848780E592E00E94270B84E175
:1016B00090E0A0E0B0E080934C0290934D02A093A4
:1016C0004E02B0934F028AE090E0A0E0B0E0809339
:1016D000440290934502A0934602B093470284E6E9
:1016E00092E00E94270B88E792E00E94270BCCE84B
:1016F000D2E089E291E0998388838AE08A8361E07D
:101700000E94DC0161E08A81DF91CF910C946B0132
:10171000CF93DF93CDB7DEB7A8970FB6F894DEBFAF
:101720000FBECDBF789484B5826084BD84B58160DE
:1017300084BD85B5826085BD85B5816085BD80919C
:101740006E00816080936E00109281008091810014
:10175000826080938100809181008160809381000C
:1017600080918000816080938000809191008260F0
:10177000809391008091910081608093910080918D
:1017800090008160809390008091C100846080937C
:10179000C1008091C10082608093C1008091C1002E
:1017A00081608093C1008091C30081608093C300F9
:1017B0008091C00082608093C0008091C2008160EF
:1017C0008093C20080917A00846080937A00809137
:1017D0007A00826080937A0080917A0081608093A1
:1017E0007A0080917A00806880937A001092EF01ED
:1017F0001092D8011092D7018091D7008160809318
:10180000D70080EA8093D80089B5806189BD89B509
:10181000826089BD09B400FEFDCF61E070E080E028
:1018200090E00E9432028091D8008F7C806180938A
:10183000D8008091E000807F8093E0008091E100FB
:101840008E7E8093E1008DE08093E200559A209A8D
:101850005D9828988FEF9FEF9093FD018093FC0196
:101860000E94300440E251EA67E070E08CE892E0C8
:101870000E94E90660E089E10E94DC0161E082E10A
:101880000E94DC0161E083E10E94DC0161E084E10F
:101890000E94DC0161E085E10E94DC01CC24CA9455
:1018A00053E0D52EE12CF12C60E6262E62E0362E98
:1018B0008E010F5D1F4F4E012DE0820E911C8FB7E0
:1018C000F8944091DA015091DB016091DC01709154
:1018D000DD018FBF8091440290914502A0914602A4
:1018E000B09147020097A105B10509F001C44093EA
:1018F000400250934102609342027093430288E396
:1019000091E00E94ED0785E491E00E94ED0760E020
:1019100082E10E946B0160E083E10E946B0160E064
:1019200084E10E946B0160E085E10E946B0168E246
:1019300070E080E090E00E9432020E94FD002FEFF4
:1019400030E0DC010E940B11A70196010E94B51046
:10195000209350028EE591E00E94EB070E94FD006B
:101960002FEF30E0DC010E940B11A70196010E94CD
:10197000B510CA01B9010E940E0864E170E080E070
:1019800090E00E94320261E082E10E946B0160E01F
:1019900083E10E946B0160E084E10E946B0160E0E2
:1019A00085E10E946B0168E270E080E090E00E94B7
:1019B00032020E94FD002FEF30E0DC010E940B118B
:1019C000A70196010E94B5102093510283E691E091
:1019D0000E94EB070E94FD002FEF30E0DC010E9427
:1019E0000B11A70196010E94B510CA01B9010E940E
:1019F0000E0864E170E080E090E00E94320260E056
:101A000082E10E946B0161E083E10E946B0160E072
:101A100084E10E946B0160E085E10E946B0168E255
:101A200070E080E090E00E9432020E94FD002FEF03
:101A300030E0DC010E940B11A70196010E94B51055
:101A40002093520288E691E00E94EB070E94FD007D
:101A50002FEF30E0DC010E940B11A70196010E94DC
:101A6000B510CA01B9010E940E0864E170E080E07F
:101A700090E00E94320261E082E10E946B0161E02D
:101A800083E10E946B0160E084E10E946B0160E0F1
:101A900085E10E946B0168E270E080E090E00E94C6
:101AA00032020E94FD002FEF30E0DC010E940B119A
:101AB000A70196010E94B510209353028DE691E094
:101AC0000E94EB070E94FD002FEF30E0DC010E9436
:101AD0000B11A70196010E94B510CA01B9010E941D
:101AE0000E0864E170E080E090E00E94320260E065
:101AF00082E10E946B0160E083E10E946B0161E082
:101B000084E10E946B0160E085E10E946B0168E264
:101B100070E080E090E00E9432020E94FD002FEF12
:101B200030E0DC010E940B11A70196010E94B51064
:101B30002093540282E791E00E94EB070E94FD008F
:101B40002FEF30E0DC010E940B11A70196010E94EB
:101B5000B510CA01B9010E940E0864E170E080E08E
:101B600090E00E94320261E082E10E946B0160E03D
:101B700083E10E946B0161E084E10E946B0160E0FF
:101B800085E10E946B0168E270E080E090E00E94D5
:101B900032020E94FD002FEF30E0DC010E940B11A9
:101BA000A70196010E94B5102093550287E791E0A6
:101BB0000E94EB070E94FD002FEF30E0DC010E9445
:101BC0000B11A70196010E94B510CA01B9010E942C
:101BD0000E0864E170E080E090E00E94320260E074
:101BE00082E10E946B0161E083E10E946B0161E090
:101BF00084E10E946B0160E085E10E946B0168E274
:101C000070E080E090E00E9432020E94FD002FEF21
:101C100030E0DC010E940B11A70196010E94B51073
:101C2000209356028CE791E00E94EB070E94FD0092
:101C30002FEF30E0DC010E940B11A70196010E94FA
:101C4000B510CA01B9010E940E0864E170E080E09D
:101C500090E00E94320261E082E10E946B0161E04B
:101C600083E10E946B0161E084E10E946B0160E00E
:101C700085E10E946B0168E270E080E090E00E94E4
:101C800032020E94FD002FEF30E0DC010E940B11B8
:101C9000A70196010E94B5102093610281E891E0AE
:101CA0000E94EB07809161020E94FB0764E170E0F3
:101CB00080E090E00E94320260E082E10E946B01CD
:101CC00060E083E10E946B0160E084E10E946B01AF
:101CD00061E085E10E946B0168E270E080E090E0E5
:101CE0000E9432020E94FD002FEF30E0DC010E94D2
:101CF0000B11A70196010E94B5102093620286E89D
:101D000091E00E94EB070E94FD002FEF30E0DC0124
:101D10000E940B11A70196010E94B510CA01B901DA
:101D20000E940E0864E170E080E090E00E943202C0
:101D300061E082E10E946B0160E083E10E946B013F
:101D400060E084E10E946B0161E085E10E946B012B
:101D500068E270E080E090E00E9432020E94FD00A4
:101D60002FEF30E0DC010E940B11A70196010E94C9
:101D7000B510209363028BE891E00E94EB070E946C
:101D8000FD002FEF30E0DC010E940B11A70196014E
:101D90000E94B510CA01B9010E940E0864E170E00A
:101DA00080E090E00E94320260E082E10E946B01DC
:101DB00061E083E10E946B0160E084E10E946B01BD
:101DC00061E085E10E946B0168E270E080E090E0F4
:101DD0000E9432020E94FD002FEF30E0DC010E94E1
:101DE0000B11A70196010E94B5102093640280E9AF
:101DF00091E00E94EB070E94FD002FEF30E0DC0134
:101E00000E940B11A70196010E94B510CA01B901E9
:101E10000E940E0864E170E080E090E00E943202CF
:101E200061E082E10E946B0161E083E10E946B014D
:101E300060E084E10E946B0161E085E10E946B013A
:101E400068E270E080E090E00E9432020E94FD00B3
:101E50002FEF30E0DC010E940B11A70196010E94D8
:101E6000B5102093650285E991E00E94EB070E947E
:101E7000FD002FEF30E0DC010E940B11A70196015D
:101E80000E94B510CA01B9010E940E0864E170E019
:101E900080E090E00E9432029091500280915A02BC
:101EA00020E532E0F901592F4191451708F4542FEC
:101EB00042E0E635F407C1F74AE5A42E42E0B42E2D
:101EC000F501482F6191641708F4462F2E163F063E
:101ED000C9F75093580240936202D9014D919D0178
:101EE000941708F4942FB2E026353B07B1F7D501DB
:101EF0002D915D01821708F4822FAE16BF06B9F747
:101F000090935902809363028FB7F8944091DA015D
:101F10005091DB016091DC017091DD018FBF8091F8
:101F20004C0290914D02A0914E02B0914F02009749
:101F3000A105B10509F0FBC0409348025093490246
:101F400060934A0270934B028AE991E00E94ED0788
:101F50008091580280936002909163029093610295
:101F6000809356028091590280935702F80128E02D
:101F700011922A95E9F7D401E8E01D92EA95E9F774
:101F8000FAE5FD8B1E8A1F8A988D2BE529831A821C
:101F90001B828C81907E9F77988F807E8F778C8339
:101FA0008D8D8F7080688D8F8E8D807F8E8F8985CF
:101FB0008F70806889878A85807F8A87E0E5F2E074
:101FC0005801A401C8012191DC012D93CD01218587
:101FD000DA012D93AD01B2E0E835FB07A1F7412C02
:101FE000512C320182EA91E00E94EB074AE0C301E2
:101FF000B2010E94A7078EEA91E00E94EB07F5016B
:1020000061915F0170E090E080E04AE00E94A707E4
:1020100085E391E00E949A07FFEF4F1A5F0A6F0A6B
:102020007F0A26E04216510461047104D9F689EA58
:1020300091E00E94EB078FA10E94FB0781EB91E0EA
:102040000E94EB0788A50E94FB075E0143E1A40EF6
:10205000B11C89EB91E00E94EB074AE0C301B20199
:102060000E94A7078EEA91E00E94EB07D5016D91CF
:102070005D0170E090E080E04AE00E94A70785E300
:1020800091E00E949A07BFEF4B1A5B0A6B0A7B0A2A
:10209000ECE04E16510461047104D9F680EC91E035
:1020A0000E94EB078B890E94FB0788EC91E00E945D
:1020B000EB078C890E94FB07BE016B5E7F4F8CE8AB
:1020C00092E00E9455056AE070E080E090E00E9496
:1020D0003202BE016F5F7F4F8CE892E00E9455058F
:1020E00080E090E0892B09F4EACB0E940000E7CB66
:1020F0004090400250904102609042027090430232
:102100004419550966097709481759076A077B0773
:1021100008F4FACE840D951DA61DB71D80934002CC
:1021200090934102A0934202B0934302E8CB4090C7
:1021300048025090490260904A0270904B02441944
:10214000550966097709481759076A077B0740F25E
:10215000840D951DA61DB71D8093480290934902DA
:10216000A0934A02B0934B02EFCE052E97FB1EF4CC
:1021700000940E94CC1057FD07D00E94D41007FC99
:1021800003D04EF40C94CC10509540953095219589
:102190003F4F4F4F5F4F0895909580957095619593
:1021A0007F4F8F4F9F4F0895A1E21A2EAA1BBB1B92
:1021B000FD010DC0AA1FBB1FEE1FFF1FA217B30713
:1021C000E407F50720F0A21BB30BE40BF50B661F29
:1021D000771F881F991F1A9469F7609570958095ED
:1021E00090959B01AC01BD01CF010895A29FB00164
:1021F000B39FC001A39F700D811D1124911DB29F3B
:10220000700D811D1124911D0895EE0FFF1F059083
:10221000F491E02D09940E94F610B7FF0895821BF7
:08222000930B0895F894FFCF21
:10222800FFFFFFFF00E100000000000000C1808107
:1022380000000000000000AF032A03D003C5031606
:1022480004D403F20300000000E906660413051530
:1022580006F10455050D0A00757064617465642003
:1022680074656D70006C6F6C207374617274696E44
:1022780067207570646174652074656D7000312025
:10228800203A003220203A003320203A003420201F
:102298003A003520203A003620203A003720203AEC
:1022A800003820203A003920203A003130203A0006
:1022B8003131203A003132203A0073656E64535050
:1022C8004900446174613120004D696E20313A2023
:1022D800004D617820313A20004461746132200059
:1022E8004D696E20323A20004D617820323A200044
:00000001FF
