:100000000C94D4000C94FC000C94FC000C94FC00A8
:100010000C94FC000C94FC000C94FC000C94FC0070
:100020000C94FC000C94FC000C9420080C948F0899
:100030000C94FC000C94FC000C94FC000C94FC0050
:100040000C94FC000C94FC000C94FC000C94FC0040
:100050000C94FC000C94FC000C94FC000C94D6074F
:100060000C94FC000C94FC000C94FC000C94FC0020
:100070000C94FC000C94FC000C94FC000C94FC0010
:100080000C94FC000C94FC000C94FC000C94FC0000
:100090000C94FC000C94FC000C94FC000C94FC00F0
:1000A0000C94FC000C94FC000C94FC00080B000267
:1000B0000202000009040000010202000005240001
:1000C0001001052401010104240206052406000193
:1000D0000705810310004009040100020A00000026
:1000E00007050202400000070583024000000403E8
:1000F000090412010002EF02014041233680000191
:100100000102030141726475696E6F204C4C43001B
:1001100041726475696E6F204C656F6E6172646FB9
:10012000000000000200090F0000030401000C00A1
:1001300000000000000000000000000000000000BF
:10014000070605040100080A0B0C0D090000000059
:10015000250028002B002E003100000000002400A4
:1001600027002A002D0030000404040404030405C1
:100170000202020204030202020206060606060644
:10018000040402020204040408020110408040102A
:1001900020408040800802040180402010020110AD
:1001A000801020404020D80A11241FBECFEFDAE093
:1001B000DEBFCDBF11E0A0E0B1E0E2E1FAE102C0B4
:1001C00005900D92AA35B107D9F722E0AAE5B1E072
:1001D00001C01D92A930B207E1F710E0C4EDD0E0F4
:1001E00004C02197FE010E94010DC33DD107C9F74C
:1001F0000E940A0B0C94070D0C94000090E0FC0187
:10020000E957FE4F249188599E4FFC018491882321
:1002100099F090E0880F991FFC01E65AFE4FA591D6
:10022000B491FC01E45BFE4F859194918FB7F894F3
:10023000EC91E22BEC938FBF0895E7E4F1E0E491B9
:1002400090917B008E2F880F880F80729F7D892B65
:1002500080937B00E770E064E0937C0080917A00FB
:10026000806480937A0080917A0086FDFCCF809133
:100270007800909179000895FC018091790188239C
:1002800011F13FB7F89482E08093E9002091F200E9
:10029000822F90E01816190614F481E090E088236C
:1002A00039F0289844E6409378014091F10040836A
:1002B000222339F02091F200211103C02BE6209374
:1002C000E8003FBF08958FEF9FEF08952FB7F89490
:1002D00083E08093E9009091E800892F807295FF78
:1002E00004C09091F20080E4891B2FBF0895809193
:1002F000700181110DC082E080936C0184E08093D5
:100300006D0110926F0110926E0181E08093700177
:100310008CE691E00895282F30E0F901EF5DFE4F63
:100320009491F901E957FE4F849128593E4FF90104
:100330002491222309F430C09923E9F091509F3091
:10034000D0F4E92FF0E0E955FE4F0C94010DD501F2
:10035000D901B601CD01D101BB01BB01BB01DC015B
:10036000E201E601EA01F001BB01F4019091800095
:100370009F7790938000E22FF0E0EE0FFF1FE45B89
:10038000FE4FA591B4919FB7F894EC91611132C0E2
:1003900080958E238C939FBF0895909180009F7DC0
:1003A000E8CF90918000977FE4CF94B59F7794BD7C
:1003B000E2CF94B59F7DFBCF909190009F77909373
:1003C0009000D9CF909190009F7DF9CF90919000AF
:1003D000977FF5CF9091C0009F779093C000CBCFCF
:1003E0009091C0009F7DF9CF9091C200977F90932C
:1003F000C200C1CF8E2BCECF3FB7F8948091680159
:1004000090916901A0916A01B0916B0126B5A89BFA
:1004100005C02F3F19F00196A11DB11D3FBFBA2F96
:10042000A92F982F8827BC01CD01620F711D811D56
:10043000911D42E0660F771F881F991F4A95D1F7DB
:1004400008958F929F92AF92BF92CF92DF92EF92D8
:10045000FF924B015C010E94FC016B017C010E9438
:10046000FC016C197D098E099F09683E7340810566
:100470009105A8F321E0821A9108A108B10888EE3D
:10048000C80E83E0D81EE11CF11C81149104A10464
:10049000B10429F7FF90EF90DF90CF90BF90AF901D
:1004A0009F908F90089540915D0150915E01209141
:1004B0005B0130915C0142175307B4F49091E8005E
:1004C0009570E1F39091E80092FD19C08093F100DE
:1004D00080915D0190915E0101968F739927892B20
:1004E00019F48EEF8093E80080915D0190915E0198
:1004F000019690935E0180935D0181E0089580E014
:100500000895EF92FF920F931F93CF93DF93F82EEE
:10051000192FE62E042F81E0860F880F0E945302C8
:1005200083E00E945302CF2DD12FEC0EFD2EF11C43
:10053000CE15DF05B9F007FF13C0FE0184910E94BC
:100540005302182F80E00E945302812321968111CB
:10055000EFCFDF91CF911F910F91FF90EF90089512
:100560008881EDCF81E0F5CFDF92EF92FF920F937C
:100570001F93CF93DF93D82E8A01EB017B01E40E0A
:10058000F51ECE15DF0559F0D7FE12C0FE0184918D
:100590000E94530221968111F4CF0FEF1FEFC80183
:1005A000DF91CF911F910F91FF90EF90DF90089511
:1005B0008881EECF0F931F93CF93DF931F92CDB718
:1005C000DEB782E0898342E450E06CEA70E080E8C4
:1005D0000E94B4020E947701DC0112960D911C91D9
:1005E0000115110589F0D801ED91FC910280F3818C
:1005F000E02DBE016F5F7F4FC801099597FD04C0D4
:10060000F80100851185ECCF89810F90DF91CF91A2
:100610001F910F910895615030F02091F100FC017D
:1006200020830196F8CF289884E680937801089576
:100630008F929F92AF92BF92CF92DF92EF92FF92F2
:100640000F931F93CF93DF936C017B018A018091FD
:100650000B01882309F45CC080917901882309F497
:1006600057C08091610180FF05C08091E0008260E9
:100670008093E000E801B12C8AEFA82E93E0892E48
:100680002AE3922E209711F4BB20D9F10E94660133
:1006900081110AC0AA94AA20D9F161E070E080E03B
:1006A00090E00E942102EECF8C171D0611F00CF095
:1006B0008C2F9FB7F8948092E9002091E80025FDE7
:1006C00002C09FBFDFCF282F30E0C21BD30BF70142
:1006D000815020F041914093F100FACFE20EF31ED9
:1006E000BB2021F09092E800B12CEBCF8091E80084
:1006F00085FDE7CF9092E800BB24B394209709F3DF
:10070000F3CF5D9884E680936001101611063CF0EB
:1007100081E090E0F6019383828310E000E0C8015D
:10072000DF91CF911F910F91FF90EF90DF90CF90CD
:10073000BF90AF909F908F900895CF93DF931F92BB
:10074000CDB7DEB76983DC01ED91FC910280F381C6
:10075000E02D41E050E0BE016F5F7F4F09950F90A3
:10076000DF91CF91089583E08093E9008091F200BA
:10077000882319F08AE38093E80008950E946601B7
:1007800090E00895CF93DF931F92CDB7DEB7FC01C1
:100790008485958597FD08C02FEF3FEF3587248727
:1007A0000F90DF91CF910895CE0101960E943C01F8
:1007B000019719F4898190E0F3CF8FEF9FEFF0CF8D
:1007C0000F931F93CF93DF931F92CDB7DEB78C01AA
:1007D000FC018485958597FF0BC0CE0101960E9490
:1007E0003C01019771F4898190E0F8019587848735
:1007F000F801848595850F90DF91CF911F910F911E
:1008000008958FEF9FEFF1CFFC018485958597FDCB
:100810000BC09FB7F89482E08093E9008091F200CA
:100820009FBF90E0019608959FB7F89482E080936F
:10083000E9008091F2009FBF90E00895CF93CFB779
:10084000F89480915A01811124C0E9E7F1E0849184
:10085000E8E9F1E09491E82FF0E0EE0FFF1FE65A8F
:10086000FE4FA591B491EC91E92321F461E081E17F
:100870000E948B0181E10E94FE008CB580618CBDDD
:100880008CB580648CBD8FE00E94FE0080E10E94E8
:10089000FE0080915A018F5F80935A01CFBFCF91A4
:1008A00008959FB7F89480915A01882319F08150D8
:1008B00080935A0180915A01811103C08CB58F7BBE
:1008C0008CBD9FBF08958EBD00000DB407FEFDCF07
:1008D0008EB508951F93CF93DF93EC0160E08A817A
:1008E0000E948B0182E00E94630481E30E94630402
:1008F0001DE080E00E9463041150D9F761E08A8115
:100900000E948B0160E08A810E948B0182E00E943C
:10091000630481E40E9463041DE080E00E9463049C
:100920001150D9F761E08A810E948B0160E08A81D1
:100930000E948B0182E00E94630481E50E946304AF
:100940001DE080E00E9463041150D9F761E08A81C4
:10095000DF91CF911F910C948B011F93CF93DF9365
:10096000EC0160E08A810E948B0182E00E946304B6
:1009700081E60E9463041DE080E00E946304115040
:10098000D9F761E08A810E948B0160E08A810E9430
:100990008B0182E00E94630481E70E9463041DE0F2
:1009A00080E00E9463041150D9F761E08A81DF91F1
:1009B000CF911F910C948B01CF93DF93EC010E9498
:1009C000AD04CE01DF91CF910C946A041F93CF93B5
:1009D000DF93EC0160E08A810E948B0180EA0E9433
:1009E00063048FEF0E946304182F61E08A810E94E4
:1009F0008B01812FDF91CF911F9108950E94E60412
:100A000083700895FF920F931F93CF93DF93EC01B0
:100A1000F62E042F122F60E08A810E948B0185E060
:100A20000E9463048F2D0E946304802F0E94630440
:100A3000812F0E94630461E08A81DF91CF911F9131
:100A40000F91FF900C948B010F931F93CF93DF9323
:100A5000EC01062F142F60E08A810E948B0182E056
:100A60000E946304802F0E946304812F0E9463040C
:100A700061E08A81DF91CF911F910F910C948B01DE
:100A80009F92AF92BF92CF92DF92EF92FF920F931D
:100A90001F93CF93DF938C01EB010E94E60482FF4A
:100AA0000AC084FF6EC0A4E8CA2EB4E4BB2E86FF41
:100AB00006C080E099C0E1E8CE2EF0E4BF2EE884C5
:100AC0008E2D82958F70E984E29450EFE522E82A1A
:100AD0008B81D8804D2D59816A81782F7F71282F85
:100AE000207487FF53C0DB01CA0135E1B695A79595
:100AF000979587953A95D1F7A82EDB01CA014DE06D
:100B0000B695A795979587954A95D1F7807E962FAC
:100B10009370F92EF82A6894F3F8952E222311F099
:100B20006894E6F860E0F80182810E948B018B2DC9
:100B30000E9463048A2D0E9463048F2D0E94630427
:100B4000892D0E9463048D2D0E9463048E2D0E94C6
:100B500063047E0197012C1B3D0BFFEFEF1AFF0A88
:100B60008885982F92959F7089858295807F892BA3
:100B700082171306F9F0F4F0F70183850E946304ED
:100B8000E9CF62E8C62E72E4B72E99CF83E076955E
:100B90006795579547958A95D1F7A42EFD2CF29429
:100BA000FF0C90EEF922222311F06894F4F8D12C76
:100BB000912CB8CF61E0F80182810E948B0160E046
:100BC000F80182810E948B018C2D0E94630461E0F8
:100BD000F80182810E948B018885982F92959F70E1
:100BE00089858295807F892BDF91CF911F910F910D
:100BF000FF90EF90DF90CF90BF90AF909F900895BF
:100C00008F929F92AF92BF92CF92DF92EF92FF921C
:100C10000F931F93CF93DF93EC015B01FC013C9694
:100C200088E0DF011D928A95E9F7CB010E94E60476
:100C300080FD14C014E981FD12C08B818F7D8B83F0
:100C4000CE01DF91CF911F910F91FF90EF90DF9038
:100C5000CF90BF90AF909F908F90089510E960E083
:100C6000F50182810E948B01812F0E9463048FEF26
:100C70000E946304082F8FEF0E946304E82E8FEF19
:100C80000E946304F82E8FEF0E946304182F8FEFE9
:100C90000E946304282F2295207F98859F70922BB5
:100CA0009887282F22952F709985907F922B99876E
:100CB0004E01C82ED12CC4018C1B9D0B8C159D059B
:100CC00054F48FEF0E946304D4011C968C93BFEF01
:100CD0008B1A9B0AF0CF61E0F50182810E948B01A3
:100CE0006E2D70E09B01A3E035952795AA95E1F75D
:100CF0008B8120FB87F98B83282F207E87FF39C0CB
:100D00004E2D50E070E060E0802F90E0B0E0A0E079
:100D100035E1880F991FAA1FBB1F3A95D1F79F296C
:100D2000812B6A017B01EDE0CC0CDD1CEE1CFF1C6D
:100D3000EA95D1F7CC24DD24FCE1EF22FF248C29B5
:100D40009D29AE29BF29BA01552744274427552795
:100D500063707727842B952BA62BB72B88839983D9
:100D6000AA838B2F8F71282B2F7B2B838B81806203
:100D700066CF38E0039FC0011124092E000CAA0B96
:100D8000BB0B4E2D429546954770842B88839983E3
:100D9000AA838B2F8F7194E0759567959A95E1F7EB
:100DA000282B60FB26F9E1CF8F929F92AF92BF92E2
:100DB000FF920F931F93CF93DF93EC014A015B01E6
:100DC0000E941E0460E08A810E948B0180EC0E94D8
:100DD000630461E08A810E948B01CE010E94AD0410
:100DE000CE010E946A0420E640E660E6CE010E9441
:100DF000020520E640E660E7CE010E94020580E1A0
:100E0000881687E29806A104B10409F440C080E284
:100E100088168EE49806A104B10409F45AC080E54E
:100E2000881683EC9806A104B10409F457C080EA3F
:100E3000881686E8980681E0A806B10409F453C034
:100E400088E4881688EE980681E0A806B10409F4C3
:100E50004FC080E9881680ED980683E0A806B104AB
:100E600009F44BC080E2881681EA980687E0A8065C
:100E7000B10409F447C080E4881682E498068FE044
:100E8000A806B10441F412E800EDF12C04C015E00D
:100E900008EB41E3F42E4F2D6AE2CE010E942405B7
:100EA000402F69E2CE010E942405412F68E2CE0165
:100EB0000E94240520E040EE6FE0CE01DF91CF914B
:100EC0001F910F91FF90BF90AF909F908F900C94C7
:100ED000020515E008EB38E1F32EDDCF15E008EB55
:100EE00029E0F22ED8CF15E008EB94E0F92ED3CF0D
:100EF00015E008EB83E0F82ECECF15E008EBFF24D9
:100F0000F394C9CF15E008EBC0CFFC01019000209D
:100F1000E9F73197AF01481B590BBC018AE791E013
:100F20000C9418038F929F92AF92BF920F931F93CE
:100F3000CF93DF93CDB7DEB7A1970FB6F894DEBF9E
:100F40000FBECDBF19A2423008F44AE08E010F5DFA
:100F50001F4F842E912CB12CA12CA50194010E942D
:100F6000DF0CE62FB901CA01EA30F4F4E05DD801E4
:100F7000EE938D01232B242B252B79F790E080E035
:100F8000109719F0CD010E948507A1960FB6F8942D
:100F9000DEBF0FBECDBFDF91CF911F910F91BF90EC
:100FA000AF909F908F900895E95CE1CF1F920F92D0
:100FB0000FB60F9211242F933F938F939F93AF936C
:100FC000BF938091640190916501A0916601B091F9
:100FD00067013091630123E0230F2D3758F5019607
:100FE000A11DB11D2093630180936401909365015D
:100FF000A0936601B09367018091680190916901A7
:10100000A0916A01B0916B010196A11DB11D809361
:10101000680190936901A0936A01B0936B01BF913D
:10102000AF919F918F913F912F910F900FBE0F9095
:101030001F90189526E8230F0296A11DB11DD2CF4F
:101040001F920F920FB60F9211248F939F9380914E
:10105000E1009091E100937F9093E10083FF0FC046
:101060001092E90091E09093EB001092EC0092E373
:101070009093ED001092790198E09093F00082FF38
:1010800022C093E09093E9009091F200992319F027
:101090009AE39093E80090916001992341F0909138
:1010A0006001915090936001911101C05D9A9091FF
:1010B0007801992341F090917801915090937801B3
:1010C000911101C0289A84FF18C08091E2008E7EA1
:1010D00081608093E2008091E1008F7E8093E10047
:1010E000809161018E7E8061809361019F918F91DB
:1010F0000F900FBE0F901F90189580FFF7CF809133
:10110000E2008E7E80618093E2008091E1008E7E1D
:101110008093E100809161018E7E8160E5CF1F9216
:101120000F920FB60F921124CF92DF92EF92FF929F
:101130000F931F932F933F934F935F936F937F93DF
:101140008F939F93AF93BF93EF93FF93CF93DF93CF
:10115000CDB7DEB76C97DEBFCDBF1092E9008091AE
:10116000E80083FF25C068E0CE0145960E940B038E
:1011700082EF8093E8008D8987FF39C09091E80065
:1011800090FFFCCF982F907609F034C19E894F894B
:10119000588D2F89F88C911131C0803861F580917C
:1011A00062018093F1001092F1008EEF8093E800CD
:1011B0006C960FB6F894DEBF0FBECDBFDF91CF9116
:1011C000FF91EF91BF91AF919F918F917F916F911F
:1011D0005F914F913F912F911F910F91FF90EF9051
:1011E000DF90CF900F900FBE0F901F9018959EEF3D
:1011F0009093E800C7CF1092F100D5CF913059F409
:101200008111D3CF4130510581F6809162018D7FEC
:1012100080936201CACF933049F48111C6CF413027
:10122000510519F6809162018260F2CF953041F448
:101230008091E80080FFFCCF20682093E300B5CFC9
:10124000963009F0A9C00B8D1C8D22E01092E900A8
:1012500010925E0110925D01F2122EC010925C019C
:1012600010925B010E94DA021F8299E09983FA8250
:1012700091E09E8390EA98879AEF998720915D018B
:1012800030915E01275F3F4F3C832B838D8310920B
:10129000E90010925E0110925D0110935C010093D1
:1012A0005B0149E050E0BE016F5F7F4F80E00E942C
:1012B000B4020E94DA0279CF10935C0100935B01C3
:1012C0000E947701DC0112960D911C910115110508
:1012D00009F451C1D801ED91FC910480F581E02D14
:1012E000BE016B5E7F4FC8010995009709F03EC1B2
:1012F000F80100851185EACFF3E0FF120EC08F8957
:10130000882309F440C0823061F440E860E180E164
:1013100091E00E948102811148CF81E28093EB002D
:1013200047CF813029F440E86BE084E091E0F1CFD1
:10133000833099F70E947701DC011296ED90FC90C2
:101340008E010F5F1F4F6801E114F10479F0D7019E
:10135000ED91FC910680F781E02DB801C701099558
:10136000080F111DF701E084F184EECFD8011C9223
:10137000F60101900020E9F73197BF016C197D0952
:1013800040E0C601C6CF6EEE70E0FB01449150E034
:1013900080E80E94B40209CF973009F4BECF98309C
:1013A00021F481E08093F10000CF993009F0FDCE67
:1013B000837009F0B2CFEDE0F1E081E031E096E337
:1013C0002191222371F08093E9003093EB00DF013B
:1013D00011972C912093EC009093ED008F5F873054
:1013E00079F78EE78093EA001092EA008F89809364
:1013F0007901DBCE8B8D9C8D1092E90010925E01FD
:1014000010925D0190935C0180935B01898D811145
:1014100092C08E899D89913A49F4813209F07DCF3D
:1014200047E050E064E071E080E0B3CF913209F032
:1014300074CF833269F48F89988DB0E0A0E08093F7
:10144000000190930101A0930201B0930301ADCE7E
:10145000803269F48091E80082FFFCCF67E084E08D
:1014600091E00E940B038BEF8093E8009ECE8232C6
:1014700009F09BCE8F8980930B01EEEFFFE78591FA
:1014800094918B3F9C4D51F1E0E0F8E08091040194
:1014900090910501A0910601B0910701803B944015
:1014A000A105B105F1F480910B0180FD1AC0EE3F5A
:1014B0008AE0F80789F587E797E791838083809131
:1014C000600080935F0188E19BE00FB6F894A895D7
:1014D000809360000FBE9093600067CEEEEFFAE05D
:1014E000D5CF808191818737974709F05ECEA89547
:1014F0008091600088618093600080915F0180939B
:101500006000EE3F2AE0F20789F08091FE0A909198
:10151000FF0A9183808349CE808191818737980724
:1015200051F29093FF0A8093FE0AC5CF1092FF0AF2
:101530001092FE0A3ACE0E947701DC0112960D91BC
:101540001C910115110509F4E8CED801ED91FC912B
:101550000190F081E02DBE016B5E7F4FC8010995BF
:10156000811123CEF80100851185EBCF18161906DD
:101570000CF41BCED2CEF1E0FF12BECE62EF70E0D3
:1015800004CFCF93DF93FC0188E0DF01C82F1D92C9
:10159000CA95E9F710861186DF011A96ED011992B6
:1015A0008A95E9F7128A138A10BADF91CF910895CC
:1015B000CF93DF93EAE7F1E01382128288EE93E0A3
:1015C000A0E0B0E084839583A683B7838FE291E0A7
:1015D000918380838FEF9FEF958784878AEC91E0DA
:1015E0000E94C10A8EED91E00E94C10A82EF91E053
:1015F0000E94C10AC6E0D2E081E491E09983888329
:101600008AE08A830E94FE0061E08A81DF91CF91A7
:101610000C948B01CF93DF93CDB7DEB7AA970FB6AB
:10162000F894DEBF0FBECDBF789484B5826084BDD0
:1016300084B5816084BD85B5826085BD85B58160D6
:1016400085BD80916E00816080936E001092810054
:10165000809181008260809381008091810081600F
:1016600080938100809180008160809380008091D0
:1016700091008260809391008091910081608093BD
:101680009100809190008160809390008091C100D2
:1016900084608093C1008091C10082608093C1000A
:1016A0008091C10081608093C1008091C3008160FE
:1016B0008093C3008091C00082608093C0008091BD
:1016C000C20081608093C20080917A008460809320
:1016D0007A0080917A00826080937A0080917A000B
:1016E000816080937A0080917A00806880937A008C
:1016F0001092790110926201109261018091D700DD
:1017000081608093D70080EA8093D80089B580619A
:1017100089BD89B5826089BD09B400FEFDCF61E055
:1017200070E080E090E00E9421028091D8008F7CE0
:1017300080618093D8008091E000807F8093E000FA
:101740008091E1008E7E8093E1008DE08093E20045
:10175000559A209A8FEF9FEF90938701809386018F
:101760000E941E0440E251EA67E070E086E092E0E9
:101770000E94D4068AE00E94FE0061E08AE00E9496
:101780008B0198E0592E6E0141E2C40ED11CCE01AE
:101790000D969AA789A720EB322E31EB432E40E01D
:1017A000642E40E0742E83E1A82E81E0B82E0AEC6E
:1017B00011E07801212CF5019081F2E0AF0EB11C0F
:1017C00045E081B3892B81BB64E170E080E090E06B
:1017D000421508F4EDC00E9421020E941D01F7018C
:1017E000808364E170E080E090E00E94210281B398
:1017F00011BA2394FFEFEF1AFF0A4CE02412DBCF5B
:101800003091CA012091D401EAECF1E0932F81914B
:10181000891708F4982F81E0E03DF807C1F7E4ED5F
:10182000F1E0DF01822F4D91481708F4842F41E049
:10183000AA3DB407C1F79093D2018093DC01AAECD2
:10184000B1E04D91341708F4342F41E0A03DB407C6
:10185000C1F74191241708F4242F41E0EA3DF40731
:10186000C1F73093D3012093DD019093D001809391
:10187000DA019093D1018093DB0164EF71E080E0A5
:1018800090E00E942102F601452D11924A95E9F758
:10189000E9A5FAA5452D11924A95E9F73D8A1E8AD8
:1018A0001F8A988D49821A821B828C81907E9F7735
:1018B000988F807E8F778C838D8D8F7080688D8FD1
:1018C0008E8D807F8E8F89858F70806889878A85CD
:1018D000807F8A8776019E01235F3F4FD601F80102
:1018E00081918F018D938185F90181939F01F1E0B1
:1018F000023D1F07A1F7812C912C54018DE491E04A
:101900000E9485074AE0C501B4010E94920784E560
:1019100091E00E948507F70161917F0170E090E0FE
:1019200080E04AE00E94920787E591E00E948507E7
:10193000FFEF8F1A9F0AAF0ABF0A48E0841691048E
:10194000A104B104D9F660E08AE00E948B0164E151
:1019500070E080E090E00E942102BE016B5E7F4F4C
:1019600086E092E00E94400564E170E080E090E053
:101970000E942102BE016F5F7F4F86E092E00E94CD
:10198000400564E170E080E090E00E94210261E0A7
:101990008AE00E948B0164EF71E080E090E00E9499
:1019A00021026114710409F4FECE0E940000FBCEF6
:1019B0000E9421020E941D01F701848312CFA1E23F
:1019C0001A2EAA1BBB1BFD010DC0AA1FBB1FEE1FB9
:1019D000FF1FA217B307E407F50720F0A21BB30B04
:1019E000E40BF50B661F771F881F991F1A9469F780
:1019F00060957095809590959B01AC01BD01CF01DC
:101A00000895EE0FFF1F0590F491E02D0994F894CE
:021A1000FFCF06
:101A1200FFFFFFFF00E100000000000000C1808125
:101A2200000000000001000200030004000500069F
:101A3200000700080009000A000B00000000009DDA
:101A4200031803BE03B3030404C203E0030000004F
:101A520000D4065104FE040006DC0440054461740F
:0A1A6200613120003A20000D0A0057
:00000001FF
